:020000040800F2
:10000000280700206102000835180008D5130008F1
:10001000311800080D040008B11D000800000000A0
:10002000000000000000000000000000E11C0008CB
:100030001104000800000000DD1C0008E51C000899
:100040007B0200087B0200087B0200087B0200089C
:100050007B0200087B0200087B0200087B0200088C
:100060007B0200087B0200087B0200087B0200087C
:100070007B0200087B0200087B0200087B0200086C
:100080007B0200087B0200087B02000800000000E1
:100090000000000000000000000000007B020008DB
:1000A0007B0200087B0200087B0200087B0200083C
:1000B0007B0200087B0200087B0200087B0200082C
:1000C0007B0200087B0200087B0200087B0200081C
:1000D0007B0200087B0200087B0200080000000091
:1000E0007B0200087B0200087B0200080000000081
:1000F0000000000000000000000000007B0200087B
:10010000000000007B0200087B0200087B02000860
:1001100000000000000000000000000000000000DF
:100120007B0200087B0200087B0200087B020008BB
:100130007B0200080000000000000000000000003A
:100140000000000000000000000000007B0200082A
:100150007B0200087B0200087B0200087B0200088B
:100160007B0200087B020008000000000000000085
:10017000000000000000000000000000000000007F
:10018000000000007B0200080000000000000000EA
:100190007B02000800F002F800F052F814A696E87E
:1001A000000CB244B344DA4501D100F049F8BAE892
:1001B0000F000FA696E83000A5EB040504EB060738
:1001C000AAEB0704A7F101074FEA15154FEA34140B
:1001D000A4F10104AC4201D300F032F813F0010F96
:1001E00018BFFB1A43F0010300F001F8DBE71847E2
:1001F0009C260000BC260000103A24BF78C878C1B5
:10020000FAD8520724BF30C830C144BF04680C601C
:1002100070470000704700000023002400250026DE
:10022000103A28BF78C1FBD8520728BF30C148BF59
:100230000B6070471FB501F00BFF1FBD10B510BD5F
:1002400000F0A9F81146FFF7F5FF01F0E3FE00F01A
:10025000C7F803B4FFF7F2FF03BC00F0CFF80000CB
:100260000948804709480047FEE7FEE7FEE7FEE74A
:10027000FEE7FEE7FEE7FEE7FEE7FEE70448054986
:10028000054A064B70470000951D000895010008BF
:100290002801002028070020280300202803002030
:1002A00053EA020C00F069802DE9F04B4FF0000694
:1002B000002B1FBFB3FA83F503FA05F424FA05F601
:1002C0005E4012BF1643B2FA82F502FA05F4C5F198
:1002D00020051EBF22FA05FC44EA0C04203556EA2C
:1002E000044C4FEA144418BF641C4FF000084FF050
:1002F0000009904271EB030C39D3002919BFB1FA00
:1003000081F701FA07F6B0FA80F700FA07F6C7F1AD
:1003100020071EBF20FA07FC46EA0C062037B6FB72
:10032000F4FCA7EB0507103F07F01F0BCBF12006ED
:100330002CFA06F60CFA0BFB44BFB3460026202F1E
:10034000A4BF5E464FF0000B5BEA060C08BF4FF0FF
:10035000010B19EB0B0948EB0608ABFB027C06FB13
:1003600002CC0BFB03CCC01B71EB0C01C1E70B46AD
:10037000024641464846BDE8F08B13B5084318BF16
:100380004FF0FF300146AFF30080BDE81C407047DE
:10039000704770477047754600F02CF8AE46050070
:1003A0006946534620F00700854618B020B5FFF790
:1003B00065FFBDE820404FF000064FF000074FF00A
:1003C00000084FF0000BAC46ACE8C009ACE8C0092F
:1003D000ACE8C009ACE8C00921F007018D467047C0
:1003E00010B50446AFF300802046BDE81040FFF78B
:1003F00030BF000000487047280000200149182045
:10040000ABBEFEE72600020070470000FEE70000DA
:1004100070470000EFF3108072B600BFFEE70000E7
:1004200070B581B00022009290F83C20012A03D1DF
:100430000221084601B070BD0E6801220A2E80F824
:100440003C2009D3B2B25200D0F800E012FA86F292
:100450001E3A0EF10C0305E0D0F800E006EB460270
:100460000EF110034FF0070C1D680CFA02F4A543BF
:100470001D608D681C6805FA02F222431A60496803
:1004800006290FD801EB81014A1F71461F2351F83D
:10049000345F934025EA03030B60B3B203FA02F220
:1004A00014E000BF01EB81030C29B2B204D87146FD
:1004B00051F8304F233B03E0714651F82C4F413B3C
:1004C0001F259D4024EA05059A400D600B6842F205
:1004D000043CC4F2010C1A43ACF541739E450A601A
:1004E0003BD1122E06D1DCF8001041F48001CCF88B
:1004F000001032E026F0010110292ED1DCF80010A6
:10050000102E41F40001CCF8001026D140F2240155
:10051000C2F2000109684DF68362C4F21B32A1FBEE
:100520000212910C01EB8101490000910099A1B1E7
:10053000009901390091009979B100990139009130
:10054000009951B1009901390091009929B10099A0
:100550000139009100990029EAD1002180F83C106E
:10056000084601B070BD0000002804BF012070479C
:1005700010B50446006C00283ED0206CC00645D45F
:10058000206C41F202118843023042F204312064AF
:10059000C4F20101086820F4403008600A6894E859
:1005A00009101A43D4F810E00A604168012321F4CD
:1005B000807141604168C0F6007341EA0E214160DC
:1005C000416821F040714160416841EA0C0141609D
:1005D000816821F400618160E16882681143816073
:1005E000A16A8268994222F070628260826813D1A7
:1005F00022F0405119E000BF204600F065F80020CD
:10060000606484F83C00206CC006B9D5012000214C
:1006100084F83C1010BD00BF11438160816821F057
:1006200040518160E16A826811438160816821F0F4
:10063000020181608168227E94F8203041EA420103
:100640008160416883B141F40061416041684EF2CC
:10065000000221F460414160616ACFF6FF72436895
:1006600002EB4131194301E021F400614160C16AAC
:1006700040F2000C21F47001C162E2696169CFF6B9
:10068000F07CC36A0CEB02521A43C262826822F405
:100690000072826094F83020836843EA42228260CC
:1006A000826822F480628260826842EA81218160ED
:1006B00000206064216C012262F3010121640021A9
:1006C00084F83C1010BD000080B586B042F20001F5
:1006D0000068C4F20101002288420592049201D010
:1006E00006B080BD43F630000092C4F202004369B8
:1006F00043F480734361436903F480730093009B68
:100700000092036843F002030360006800F00200F7
:1007100000900098012001900320CDE9020201F52C
:10072000644001A900F016F806B080BDB0B50446DB
:1007300000F0EEF8054640F20000C2F2000000783A
:10074000611C18BF044400BF00F0E2F8401BA04247
:10075000FAD3B0BD2DE9F04F82B000F13E4202F174
:10076000FF72870541F2000647EA9227C4F20206AB
:10077000072243F6004EB04208BF0422C4F2010E25
:10078000042F38BF3A464FF0010A002600274FF0E9
:100790000008009208E000BF023708F10108202F8E
:1007A00006F1040600F0AA800A680AFA08F412EAC0
:1007B0000409F1D0D1F804C0BCF1120F00F2988006
:1007C0000AFA0CF212F0061F00F0928003238268EE
:1007D00003FA07F5CB68AA43BB401A43826042681C
:1007E0004FEA1C13A24303FA08F34FEA480A6FEAE0
:1007F000050B1A434260C2688B6802EA0B0203FAD7
:100800000AF31A434CF01003122BC26013D16FF09D
:10081000030202EA5802024406F01C050F23D2F834
:1008200020C003FA05F40B692CEA0404AB4023430F
:100830001362D1F804C002680CF0030302EA0B0251
:1008400003FA0AF31A435FEACC034FF0010A02608D
:10085000A2D5002243F644030192C4F202031A68AF
:100860004FF6084C42F480421A601A68CFF6FF7CBB
:1008700002F480420192019A28F00302724452F875
:100880000C3006F00C050F24AC40A343009C04FA86
:1008900005F52B4342F80C30DEF800204B6842EAA5
:1008A0000905DC0358BF22EA0905CEF80050DEF83E
:1008B00004209C0342EA090558BF22EA0905CEF844
:1008C0000450DEF80820DC0242EA090543F60C4435
:1008D00058BF22EA0905CEF80850C4F20104226884
:1008E0009B0242EA090558BF22EA0905256053E741
:1008F0000322BA406FEA020BBA467CE702B0BDE8B9
:10090000F08F0000002A08BF0904816170470000D1
:1009100040F22410C2F2000000687047002804BFB3
:1009200001207047F0B581B0044690F83D0028B929
:10093000002084F83C00204600F090F9242084F840
:100940003D002068016821F001010160016841F467
:1009500000410160016821F40041016000F00CFBDE
:10096000636848F2A16CC0F2010C40F60011C0F2BD
:100970003D0163453CBF48F28041C0F21E01884200
:1009800002D2012001B0F0BD4DF68361C4F21B31EB
:10099000A0FB01122168970CD1F804E04FF4967681
:1009A0002EF03F0545EA92454D60774348F63816EC
:1009B0000D6AC0F24106A7FB067625F03F076345A6
:1009C00038BF960C721C3A430A62CA6948F2A066A4
:1009D0004CF6FF77C0F20106B34222EA07020BD8B9
:1009E00001385B00B0FBF3F001306FF31F300428D7
:1009F00098BF04201BE000BFA768013857B1192732
:100A00007B43B0FBF3F001306FF31F3070B100F5A2
:100A1000804007E003EB4303B0FBF3F001306FF3DA
:100A20001F3018B100F5004001E000BF0120104365
:100A3000C8610868D4E9072320F0C00010431843B8
:100A40000860886848F2FF3204F10C0790438CCFAD
:100A500018431043A6698860C86820F0FF00384337
:100A60003043C860086840F0010008600020202181
:100A7000206484F83D10206384F83E0001B0F0BD8E
:100A80002DE9F04383B0994616460F460446FFF71A
:100A90003FFF94F83D1020291ED10546206881694A
:100AA000890715D5FFF734FF401B1928F6D9002018
:100AB0002021206384F83D1084F83E00216C41F031
:100AC0002001216484F83C00022003B0BDE8F083DB
:100AD00094F83C10012903D1022003B0BDE8F08353
:100AE000012284F83C200368DDE90B180A9ADB0731
:100AF00003D1036843F001030360036823F4006338
:100B00000360212084F83D00402084F83E0000204E
:100B1000206462626185608D394620850020CFF6B1
:100B2000FF70E062204632464B46CDE9008500F07A
:100B300053FC18B1012003B0BDE8F083208D0028DC
:100B400050D0206808F10106014651F8142F120612
:100B50002CD49EB1B8F1000F5AD000BF08684005F0
:100B60005ED4FFF7D5FE401B404556D820680146AD
:100B700051F8142F1206F1D518E000BF0A6852058B
:100B80004ED40A68120611D40A68520548D40A687D
:100B900012060BD40A68520542D40A68120605D41C
:100BA0000A6852053CD40A681206E7D5626A114603
:100BB00011F8013B0361238D6162591E2185678D08
:100BC000013F678547697F070AD50F0408D0517830
:100BD0000161911C6162991E2185628D013A6285D5
:100BE0000904B1D1204641462A4600F02FFD38BB0A
:100BF0002068016841F400710160202084F83D0004
:100C0000002084F83E0084F83C0003B0BDE8F08387
:100C10000868400504D4FFF77BFE202004E000BFF5
:100C20006FF480600860042000212022216384F892
:100C30003D2084F83E10226C1043206484F83C1060
:100C4000206C04287FF476AF2068016841F40071BD
:100C50000160012003B0BDE8F0830000016845F2A7
:100C60000040C4F20000814218BF7047B0B586B0A2
:100C7000002443F630050194C4F20205296800F50A
:100C8000D83041F002012960296801F00201019188
:100C90000199C02101911221CDE90214032104918F
:100CA0000421059101A9FFF755FD0094286940F43E
:100CB00000102861286900F400100090009806B028
:100CC000BDE8B0407047000040F2000040F224113F
:100CD000C2F20000C2F2000100780A681044086005
:100CE0007047000080B543F60040C4F2020001687E
:100CF00041F400710160016841F4806101600168A4
:100D000041F480710160032000F074F80F2000F0BE
:100D100005F800F027F8002080BD000070B540F213
:100D20000006C2F2000640F224013278C2F200014D
:100D30004FF47A730968B3FBF2F20446B1FBF2F1A7
:100D4000084600F031FB0F2C4FF0010508D838B9E8
:100D50004FF0FF3021460022002500F01FF874609C
:100D6000284670BD82B0002043F640010190C4F2D5
:100D700002014A6842F480424A604A6802F48042B2
:100D80000192019A0090086840F08050086008685D
:100D900000F080500090009802B0704710B54EF6F9
:100DA0000C5CCEF2000CDCF80030C3F3022E8EF0A7
:100DB0000704042C28BF0424BEF103034FF0FF3EB8
:100DC0000EFA04F438BF0023A14399400EFA03F34E
:100DD0009A43114300F00F0200F160430901043A05
:100DE00003F564436244002848BF02F10C03197004
:100DF00010BD00004EF60C51CEF200010A684FF60D
:100E0000FF031A4060F30A2242F0806040F0FD7058
:100E100008607047002804BF012070472DE9F041A9
:100E200043F60808C4F202080446D8F8F8030D4651
:100E300000F00F00884207D288F8F853D8F8F8037A
:100E400000F00F00A84277D12068810717D541072D
:100E500005D5D8F8001041F4E051C8F8001001079A
:100E600005D5D8F8001041F46041C8F80010D8F852
:100E70000010A26821F0F0011143C8F80010C0076B
:100E800040D1D8F8F80300F00F00A84207D988F83D
:100E9000F853D8F8F80300F00F00A8424CD12068AE
:100EA000410707D5D8F80010E26821F4E05111435A
:100EB000C8F80010000708D5D8F80000216920F410
:100EC000604040EAC100C8F8000000F069F8D8F8B6
:100ED000001042F26A02C1F30311C0F60002515C35
:100EE00040F2240220FA01F140F20400C2F20000B4
:100EF0000068C2F200021160FFF710FF0020BDE899
:100F0000F08100BF6068811E022907D258F8081CD2
:100F100089015CBF0120BDE8F08111E0012807D103
:100F200058F8081C89035CBF0120BDE8F08107E088
:100F300058F8081C890703D40120BDE8F08100BFE0
:100F4000D8F8001021F003010843C8F80000FFF7AB
:100F5000DFFC064641F28837D8F80000616800F0EF
:100F60000C00B0EB810F8CD0FFF7D2FC801BB84295
:100F7000F2D90320BDE8F08140F2240043F60801D5
:100F8000C2F20000C4F202010068096842F27A026B
:100F9000C1F38221C0F60002515CC84070470000D6
:100FA00010B543F60404C4F20204606800F00C00BB
:100FB00008280BD0042819BF42F20040C0F2F40008
:100FC00047F64000C0F27D1010BD00BF20682168C8
:100FD0002368490247F64001C0F27D1100F03F024C
:100FE000C3F388105CBF42F20041C0F2F401A1FBE0
:100FF00000010023FFF754F921680222C1F30141E7
:1010000002EB4101B0FBF1F010BD0000002804BF6D
:10101000012070472DE9F04182B00446007843F684
:101020000006C007C4F202060CD0B06800F00C0045
:10103000042840F081803068800303D56068002870
:1010400000F06081207880071BD5B06810F00C0F8D
:1010500009D0B06800F00C00082840F08780706864
:10106000400200F183803068800703D5E0680128E2
:1010700040F048813068216920F0F80040EAC10062
:1010800030602078000713D4207840072AD4A5695F
:10109000002D00F03281B06800F00C00082840F00C
:1010A000A180012D40F00E81012002B0BDE8F08149
:1010B0006069002840F20000C4F2472000F07E8002
:1010C0000121C0F8801EFFF723FC0546706F8007E2
:1010D000DAD4FFF71DFC401B0228F7D9032002B029
:1010E000BDE8F081306C5FEAC0080AD400200190AE
:1010F000306C40F080503064306C00F080500190D3
:10110000019847F20007C4F200073868C00547D4C9
:10111000386840F480703860FFF7FAFB054600BF7E
:101120003868C0053CD4FFF7F3FB401B0228F7D911
:10113000032002B0BDE8F081B06800F00C00082880
:1011400003D1706840023FF576AF6068B0F5803F2C
:1011500007D0B0F5A02F40F09980306840F480208F
:101160003060306840F48030306099E0E0680028FA
:101170005CD00020C4F2472001210160FFF7C8FBCA
:10118000054600BF306880073FF574AFFFF7C0FB2E
:10119000401B0228F6D9032002B0BDE8F08100BF51
:1011A000A068012805D0052854D1306F40F0040014
:1011B0003067306F40F00100306755E00021C0F823
:1011C000801EFFF7A5FB0546706F80077FF55CAFBB
:1011D000FFF79EFB401B0228F6D9032002B0BDE8B2
:1011E000F08100BF0027C4F2472700203866FFF7D0
:1011F0008FFB022D05460DD13068800140F18680BD
:10120000FFF786FB401B02284FF00300F4D902B021
:10121000BDE8F081306880016FD5FFF779FB401B96
:1012200002284FF00300F5D9F1E700BF0020C4F217
:10123000472000210160FFF76BFB054630688007FF
:101240007FF51FAFFFF764FB401B02284FF0030040
:10125000F4D9DCE7316F002821F001013167316FEB
:1012600021F00401316773D0FFF752FB054641F2CC
:10127000883700BF306F80077CD4FFF749FB401BE5
:10128000B842F7D9032002B0BDE8F08131680028E8
:1012900021F480313160316821F48021316073D0D4
:1012A000FFF736FB054600BF306880033FF5CAAE46
:1012B000FFF72EFB401B6428F6D9032002B0BDE8DF
:1012C000F08100BF7068E16900F480028A4219D1A0
:1012D000216A00F03F028A4214D147F6C071626A67
:1012E000014091420ED1A16A00F440328A4209D1F4
:1012F000E16A00F07060884204D1002002B0BDE8CD
:10130000F08100BF012002B0BDE8F08104F11C05AE
:101310002FCD084340EA8210D9034FF6FF72914364
:10132000A1F5803140EA056008437060012038660D
:10133000FFF7EEFA044600BF30688001DDD4FFF706
:10134000E7FA001B02284FF00300F5D95FE700BF62
:10135000FFF7DEFA054641F2883700BF306F80079D
:1013600008D5FFF7D5FA401BB8424FF00300F5D976
:101370004DE700BFB8F1000F3FF589AE306C20F0AB
:101380008050306483E600BFFFF7C2FA054600BF15
:10139000306880037FF556AEFFF7BAFA401B642829
:1013A0004FF00300F4D932E7411E0020B0EB116F7B
:1013B0001CBF012070474EF21002CEF200025160B5
:1013C0004EF62351CEF20001F0230B7007219060FE
:1013D00011607047FEE700002DE9F04381B004463C
:1013E000006890460268099D42F48072026042697A
:1013F000089E9946D2070F461DD1711C11D0002EB0
:1014000000F0D280FFF784FA401BB04200F2CE8099
:1014100020684169C907F5D00DE000BF4169C907DF
:1014200009D14169C90706D14169C90704BF4169AA
:101430005FEAC171F2D007F0FE01016141698907DD
:1014400038D44169721C29D0490529D4002E00F0F6
:10145000E98000BFFFF75CFA401BB04200F2E48075
:1014600020684169890725D441694905F2D517E00B
:10147000416989071ED44169490511D44169890729
:1014800018D4416949050BD44169890712D44169CF
:10149000490505D4416989070CD441694905E7D557
:1014A000016841F4007101606FF4806141610420C2
:1014B000BBE000BF00210091014651F8142F0092BB
:1014C0004A680092009A0A6812061ED4002E00F0A4
:1014D0008580721C4DD10A68520500F187800A6828
:1014E000120612D40A68520500F180800A681206BA
:1014F0000BD40A68520579D40A68120605D40A6822
:10150000520573D40A681206E5D5B9F1010F43D02C
:101510004FEA18210161014651F8142F12063BD4FD
:10152000002E5BD0721C29D10A6852055ED40A686D
:10153000120631D40A68520558D40A6812062BD410
:101540000A68520552D40A68120625D40A68520560
:101550004CD40A681206E7D51EE000BFFFF7D8F9A1
:10156000401BB0423FD82068014651F8142F1206A4
:10157000CBD408684005F1D538E000BF08684005C5
:1015800034D4FFF7C5F9401BB0422CD8206801467F
:1015900051F8142F1206F1D55FFA88F1016100208D
:1015A00001B0BDE8F08300BFFFF7B2F900202021B1
:1015B000206384F83D1084F83E00216C41F0200146
:1015C0002164216884F83C000868C00544BF4FF4DA
:1015D00000702064032001B0BDE8F0830868400576
:1015E00004D4FFF795F9202004E000BF6FF4806079
:1015F0000860042000212022216384F83D2084F823
:101600003E10226C1043206484F83C10206C0428A7
:1016100017D12068016841F400710160012001B018
:10162000BDE8F083FFF774F9202000212022216318
:1016300084F83D2084F83E10226C1043206484F826
:101640003C10012001B0BDE8F083000070B50368D4
:10165000044653F8140F400737D40E46F1B1701CFE
:1016600024D100BF1868400532D4186840072CD434
:10167000186840052CD41868400726D4186840051F
:1016800026D41868400720D41868400520D418686C
:1016900040074FF0000048BF70BDE3E71868400501
:1016A00016D4FFF735F9202016E000BF154600BF1D
:1016B000186840050CD4FFF72BF9401BB042F2D854
:1016C000236853F8140F4007F2D5002070BD00BF07
:1016D0006FF480601860042000212022216384F8C8
:1016E0003D2084F83E10226C10432064012084F8D1
:1016F0003C1070BDB0B584B040F2880042F20001E9
:1017000001230024C2F20000C4F20101C0F60073FC
:10171000012503944FF48032047680F82040C0E91C
:101720000A34C56180F8304080E81600C0E90344FF
:101730004561FEF719FF002818BFFEF76BFE082071
:10174000CDE9000540F28800C2F20000694602942B
:10175000FEF766FE002818BFFEF75CFE04B0B0BDC1
:10176000F0B587B0002543F6300006950195C4F228
:101770000200016841F2000441F0100101600168BB
:10178000C4F2020401F01001019101990195016870
:10179000012241F0800101600168042601F080010E
:1017A0000191019901950168012741F00201016051
:1017B000016801F00201019101990195016841F070
:1017C000010101600068042100F00100019001980E
:1017D0002046FFF797F802A92046CDE90267CDE938
:1017E0000455FEF7B7FF07B0F0BD000080B540F22A
:1017F000D00045F20041C2F20000C4F2000148F2FC
:10180000A06200234FF4804CC0F2010280E80E0079
:10181000C0E9033CC0E90533C0E90733FFF77EF8B0
:10182000002808BF80BDBDE88040FEF7F3BD000082
:10183000FEE70000FEE700002DE9F04F85B040F222
:10184000D00400254FF480760127C2F200040DF188
:10185000120B0DF113084FF0000900BF09F1B000A1
:101860008DF8100004A8CDE9000720467821002259
:1018700001230296FFF704F90DF11100CDE90007ED
:1018800020467821002201238DF811500296FFF79F
:10189000F7F810208DF8120020467821002201234D
:1018A000CDE900B70296FFF7EBF84FF0000A00BF52
:1018B00020467821402201238DF81350CDE900877E
:1018C0000296FFF7DDF80AF101004FFA80FABAF14B
:1018D000FF3FEDDCB9F1070F09F10109BED305B0F7
:1018E000BDE8F08F80B5C820FEF720FFBDE880403E
:1018F00000F060BA2DE9F04F89B047B2C0F3C010D4
:10190000203A01EB400427EAE7711027A4F15000C8
:1019100047EA111601F00F05102BD7B240F03081C5
:1019200040F2D00B8DF818004FF0010806A8C2F263
:10193000000B4FF4807CCDE9000858467821002246
:101940000123CDF808C00594FFF79AF80DF11900AE
:10195000CDE9000858467821002201234FF4807415
:101960008DF819600294FFF78BF80DF11A00CDE99C
:10197000000858467821002201238DF81A5002945D
:101980004FF48074FFF77CF842F2AA213801C0F6C8
:101990000001085C01EB07178DF81B0004950DF1A1
:1019A0001B055846782140220123CDE900580294B6
:1019B000FFF766F8787897F8029097F803A00396F7
:1019C0003E798DF81B005846782140220123CDE94D
:1019D00000580294FFF754F858467821402201231A
:1019E0008DF81B90CDE900580294FFF749F858464E
:1019F0007821402201238DF81BA0CDE900580294E4
:101A0000FFF73EF858467821402201238DF81B60ED
:101A1000CDE900580294FFF733F8787978218DF8F2
:101A20001B00584640220123CDE900580294FFF7DD
:101A300027F8B87978218DF81B00584640220123F9
:101A4000CDE900580294FFF71BF8F87978218DF85A
:101A50001B00584640220123CDE900580294FFF7AD
:101A60000FF8059878214F388DF81C0007A8CDE9AC
:101A700000085846002201230294FFF701F803985A
:101A800078218DF81D000DF11D00CDE900085846A4
:101A9000002201230294FEF7F3FF049878218DF8C9
:101AA0001E000DF11E00CDE900085846002201235A
:101AB0000294FEF7E5FF387A0DF11F058DF81F003F
:101AC0005846782140220123CDE900580294FEF7C0
:101AD000D7FF787A78218DF81F00584640220123DD
:101AE000CDE900580294FEF7CBFFB87A78218DF843
:101AF0001F00584640220123CDE900580294FEF70A
:101B0000BFFFF87A78218DF81F0058464022012344
:101B1000CDE900580294FEF7B3FF387B78218DF8A9
:101B20001F00584640220123CDE900580294FEF7D9
:101B3000A7FF787B78218DF81F00584640220123AB
:101B4000CDE900580294FEF79BFFB87B78218DF811
:101B50001F00584640220123CDE900580294FEF7A9
:101B60008FFFF87BCDE900588DF81F00584678218B
:101B7000402201230294FEF783FF09B0BDE8F08FF5
:101B800040F2D00B8DF820004FF0010908A8C2F2F6
:101B9000000B4FF4807ACDE90009584678210022E5
:101BA0000123CDF808A0FEF76BFF0DF12100CDE970
:101BB000000958467821002201238DF82160CDF8D4
:101BC00008A0FEF75DFF0DF12200CDE9000958469F
:101BD0007821002201238DF82250CDF808A0FEF7CD
:101BE0004FFF42F2820107EB4700C0F6000111F8F7
:101BF000102001EB40058DF823200DF123075846F6
:101C0000782140220123CDE90079CDF808A0FEF724
:101C100037FF6878AE78EC7895F804808DF823006B
:101C20005846782140220123CDE90079CDF808A05B
:101C3000FEF726FF58467821402201238DF82360C5
:101C4000CDE90079CDF808A0FEF71AFF58467821B3
:101C5000402201238DF82340CDE90079CDF808A07A
:101C6000FEF70EFF58467821402201238DF823808D
:101C7000CDE90079CDF808A0FEF702FF6879782158
:101C80008DF82300584640220123CDE90079CDF894
:101C900008A0FEF7F5FE09B0BDE8F08F2DE9F04190
:101CA00015461278002A08BFBDE8F08198460E4616
:101CB00007460024F8B2F1B2D2B24346FFF71AFE4B
:101CC0000837F8B201347828E0B288BF02362A5CBF
:101CD00088BF0027002AEDD1BDE8F08170470000E1
:101CE00070470000FEF7F0BFB0B592B0002443F695
:101CF00040000B94CDE90944CDE907440594CDE9B2
:101D00000344CDE901440094C4F2020001680225B5
:101D100041F080510160006800F080500090009810
:101D200047F200000094C4F20000016865F38F31AF
:101D30000160006800F44040009000980120099084
:101D400010200A9008200E905420CDE90F050420A1
:101D5000119006A80695CDE90C54FFF757F928B164
:101D6000EFF3108072B600BFFEE700BF0F20CDE991
:101D700001054FF48050CDE9040401A80221039429
:101D8000FFF748F820B1EFF3108072B6FEE700BF0E
:101D900012B0B0BD4EF68850CEF20000016841F49A
:101DA000700101604FF0006140F8801C7047000036
:101DB000FEE70000F0B583B040F2D00440F208071F
:101DC000C2F200044FF480750126C2F200072046DB
:101DD000782100220123CDE900760295FEF750FE1E
:101DE000781CCDE9000620467821002201230295C7
:101DF000FEF746FEB81CCDE90006204678210022F9
:101E000001230295FEF73CFEF81CCDE900062046B2
:101E10007821002201230295FEF732FE381DCDE91C
:101E2000000620467821002201230295FEF728FEB5
:101E3000781DCDE900062046782100220123029575
:101E4000FEF71EFEB81DCDE90006204678210022CF
:101E500001230295FEF714FEF81DCDE90006204689
:101E60007821002201230295FEF70AFE07F10800FF
:101E7000CDE9000620467821002201230295FEF7D5
:101E8000FFFD07F10900CDE9000620467821002278
:101E900001230295FEF7F4FD07F10A00CDE90006E3
:101EA00020467821002201230295FEF7E9FD07F183
:101EB0000B00CDE90006204678210022012302957F
:101EC000FEF7DEFD07F10C00CDE900062046782183
:101ED000002201230295FEF7D3FD07F10D00CDE9A5
:101EE000000620467821002201230295FEF7C8FD56
:101EF00007F10E00CDE900062046782100220123DB
:101F00000295FEF7BDFD07F10F00CDE90006204662
:101F10007821002201230295FEF7B2FD07F110009F
:101F2000CDE9000620467821002201230295FEF724
:101F3000A7FD07F11100CDE9000620467821002217
:101F400001230295FEF79CFD07F11200CDE9000682
:101F500020467821002201230295FEF791FD07F12A
:101F60001300CDE9000620467821002201230295C6
:101F7000FEF786FD07F11400CDE900062046782122
:101F8000002201230295FEF77BFD07F11500CDE944
:101F9000000620467821002201230295FEF770FDFD
:101FA00007F11600CDE90006204678210022012322
:101FB0000295FEF765FD07F11700CDE90006204602
:101FC0007821002201230295FEF75AFD07F118003F
:101FD000CDE9000620467821002201230295FEF774
:101FE0004FFD07F11900CDE90006204678210022B7
:101FF00001230295FEF744FD07F11A00CDE9000622
:1020000020467821002201230295FEF739FD03B016
:10201000F0BD0000FEF766FEFFF766FEFFF7A0FBCF
:10202000FFF768FBFFF7E2FBFFF75CFCFFF704FC40
:1020300003A2002006210C23FFF730FEFEE700BFBD
:1020400048656C6C6F20576F726C64210000000053
:10205000F1EE100A4FF6FF71C0F2C03120EA010024
:1020600040F04070E1EE100A7047000000000000F0
:102070000000010203040607080900000000010235
:1020800003040000000000000000002F000000001A
:102090000700070000147F147F1400242A7F2A12EF
:1020A00000626408132300364955225000000503DE
:1020B000000000001C224100000041221C0000140E
:1020C000083E08140008083E0808000000A0600050
:1020D00000080808080800006060000000201008E0
:1020E0000402003E5149453E0000427F400000424C
:1020F00061514946002141454B31001814127F10AF
:10210000002745454539003C4A49493000017109DD
:10211000050300364949493600064949291E000091
:102120003636000000005636000000081422410038
:102130000014141414140000412214080002015168
:10214000090600324959513E007C1211127C007F71
:1021500049494936003E41414122007F4141221C0C
:10216000007F49494941007F09090901003E414971
:10217000497A007F0808087F0000417F4100002065
:1021800040413F01007F08142241007F4040404011
:10219000007F020C027F007F0408107F003E414157
:1021A000413E007F09090906003E4151215E007F42
:1021B000091929460046494949310001017F0101B9
:1021C000003F4040403F001F2040201F003F40385C
:1021D000403F00631408146300070870080700619B
:1021E0005149454300007F41410000552A552A5579
:1021F000000041417F000004020102040040404011
:102200004040000001020400002054545478007F34
:102210004844443800384444442000384444487F0B
:1022200000385454541800087E0901020018A4A470
:10223000A47C007F080404780000447D4000004036
:1022400080847D00007F102844000000417F400012
:10225000007C04180478007C0804047800384444A6
:10226000443800FC242424180018242418FC007C82
:102270000804040800485454542000043F444020FB
:10228000003C4040207C001C2040201C003C403092
:10229000403C004428102844001CA0A0A07C00441E
:1022A00064544C441414141414140000000000006E
:1022B00000000000000000000000000000F8000026
:1022C0000000000000333000000000100C06100C6D
:1022D0000600000000000000000040C07840C07808
:1022E0004000043F04043F040400007088FC0830F0
:1022F0000000001820FF211E0000F008F000E01888
:10230000000000211C031E211E0000F00888700040
:1023100000001E2123241927211010160E00000092
:1023200000000000000000000000000000E01804B1
:102330000200000000071820400000020418E0001E
:1023400000000040201807000000404080F080405E
:1023500040000202010F01020200000000F0000034
:1023600000000101011F0101010000000000000048
:10237000000080B0700000000000000000000000BD
:102380000000000101010101010100000000000046
:1023900000000030300000000000000000008060FD
:1023A0001804006018060100000000E01008081082
:1023B000E000000F102020100F00001010F80000A7
:1023C00000000020203F202000000070080808883E
:1023D000700000302824222130000030088888480E
:1023E00030000018202020110E000000C02010F83E
:1023F000000000070424243F240000F8088888080F
:1024000008000019212020110E0000E01088881813
:102410000000000F112020110E0000380808C838F5
:1024200008000000003F00000000007088080888D5
:102430007000001C222121221C0000E0100808105E
:10244000E0000000312222110F00000000C0C00097
:10245000000000000030300000000000008000009C
:10246000000000008060000000000000804020109C
:102470000800000102040810200040404040404095
:1024800040000404040404040400000810204080F8
:10249000000000201008040201000070480808082D
:1024A000F0000000003036010000C030C828E810FD
:1024B000E0000718272423140B000000C038E000B8
:1024C0000000203C23020227382008F88888887002
:1024D0000000203F202020110E00C030080808080E
:1024E0003800071820202010080008F808080810F5
:1024F000E000203F202020100F0008F88888E8081E
:102500001000203F20202320180008F88888E808C1
:102510001000203F200003000000C03008080838E9
:10252000000007182020221E020008F808000008FA
:10253000F808203F210101213F20000808F8080881
:1025400000000020203F2020000000000808F808BC
:102550000800C08080807F00000008F888C028182C
:102560000800203F20012638200008F8080000005D
:102570000000203F20202020300008F8F800F8F864
:102580000800203F003F003F200008F830C000084E
:10259000F808203F200007183F00E0100808081046
:1025A000E0000F10202020100F0008F8080808088D
:1025B000F000203F210101010000E0100808081090
:1025C000E0000F18242438504F0008F888888888C5
:1025D0007000203F2000030C30200070880808089D
:1025E00038000038202121221C00180808F80808AB
:1025F00018000000203F2000000008F80800000834
:10260000F808001F202020201F000878880000C83C
:102610003808000007380E010000F80800F800082C
:10262000F800033C0700073C030008186880806836
:10263000180820302C03032C30200838C800C83874
:1026400008000000203F2000000010080808C838DB
:1026500008002038262120201800000000FE020279
:1026600002000000007F40404000000C30C000002D
:102670000000000000010638C00000020202FE0057
:102680000000004040407F00000000000402020201
:102690000400000000000000000000000000000036
:1026A0000000808080808080808000020204000022
:1026B000000000000000000000000000808080801A
:1026C00000000019242222223F2008F80080800008
:1026D0000000003F112020110E00000000808080CB
:1026E0000000000E112020201100000000808088D2
:1026F000F800000E112020103F2000008080808014
:102700000000001F222222221300008080F088880F
:1027100088180020203F202000000000808080805A
:102720008000006B94949493600008F8008080808F
:102730000000203F210000203F20008098980000EA
:1027400000000020203F202000000000008098981A
:10275000000000C08080807F000008F800008080BA
:102760008000203F24022D302000000808F80000DF
:1027700000000020203F202000008080808080809A
:102780008000203F20003F20003F8080008080802C
:102790000000203F210000203F200000808080803A
:1027A0000000001F202020201F008080008080006B
:1027B000000080FFA12020110E000000008080801A
:1027C0008000000E112020A0FF808080800080808B
:1027D000800020203F2120000100000080808080B8
:1027E00080000033242424241900008080E08080AD
:1027F00000000000001F20200000808000000080FA
:102800008000001F202020103F208080800000805A
:10281000808000010E30080601008080008000806A
:1028200080800F300C030C300F000080800080800F
:1028300080000020312E0E3120008080800000803A
:10284000808080818E7018060100008080808080EA
:1028500080000021302C2221300000000000807C0C
:10286000020200000000003F40400002027C8000A5
:1028700000000040403F0000000000000000FF009A
:10288000000000000000FF0000000000B028000869
:102890000000002028000000F8010008D8280008E7
:1028A00028000020000700001802000800000000B7
:1028B0000100000010000000AE001040B081FFA138
:1028C000A6A83FC8D300D580D805D9F1DA12D830F0
:0828D0008D14AF000024F40098
:040000050800019559
:00000001FF
