:020000040800F2
:100000007806002079020008950D0008550D0008BB
:10001000910D000825040008F912000800000000F6
:1000200000000000000000000000000011120008A5
:1000300029040008000000000D1200081512000835
:10004000930200089302000893020008930200083C
:10005000930200089302000893020008930200082C
:10006000930200089302000893020008930200081C
:10007000930200089302000893020008930200080C
:1000800093020008930200089302000893020008FC
:1000900093020008930200089302000893020008EC
:1000A00093020008930200089302000893020008DC
:1000B00093020008930200089302000893020008CC
:1000C00093020008930200089302000893020008BC
:1000D00093020008930200089302000893020008AC
:1000E000930200089302000893020008930200089C
:1000F000930200089302000893020008930200088C
:10010000930200089302000893020008930200087B
:10011000930200089302000893020008930200086B
:10012000930200089302000893020008930200085B
:10013000930200089302000893020008930200084B
:10014000930200089302000893020008930200083B
:10015000930200089302000893020008930200082B
:10016000930200089302000893020008930200081B
:1001700093020008930200089302000800000000A8
:1001800093020008930200089302000893020008FB
:1001900093020008930200089302000893020008EB
:1001A00093020008930200089302000800F002F88E
:1001B00000F052F814A696E8000CB244B344DA45B5
:1001C00001D100F049F8BAE80F000FA696E8300018
:1001D000A5EB040504EB0607AAEB0704A7F101074A
:1001E0004FEA15154FEA3414A4F10104AC4201D3CF
:1001F00000F032F813F0010F18BFFB1A43F00103AF
:1002000000F001F8DBE718473C1700005C1700001E
:10021000103A24BF78C878C1FAD8520724BF30C832
:1002200030C144BF04680C60704700007047000094
:100230000023002400250026103A28BF78C1FBD8EF
:10024000520728BF30C148BF0B6070471FB501F08F
:100250006BF81FBD10B510BD00F0A9F81146FFF7EF
:10026000F5FF01F04BF800F0C7F803B4FFF7F2FF19
:1002700003BC00F0CFF80000094880470948004758
:10028000FEE7FEE7FEE7FEE7FEE7FEE7FEE7FEE746
:10029000FEE7FEE704480549054A064B70470000A3
:1002A000DD120008AD01000878000020780600206B
:1002B000780200207802002053EA020C00F06980E6
:1002C0002DE9F04B4FF00006002B1FBFB3FA83F56A
:1002D00003FA05F424FA05F65E4012BF1643B2FA9B
:1002E00082F502FA05F4C5F120051EBF22FA05FCCD
:1002F00044EA0C04203556EA044C4FEA144418BF73
:10030000641C4FF000084FF00009904271EB030CA1
:1003100039D3002919BFB1FA81F701FA07F6B0FA0B
:1003200080F700FA07F6C7F120071EBF20FA07FC86
:1003300046EA0C062037B6FBF4FCA7EB0507103F96
:1003400007F01F0BCBF120062CFA06F60CFA0BFB7C
:1003500044BFB3460026202FA4BF5E464FF0000BDB
:100360005BEA060C08BF4FF0010B19EB0B0948EBD9
:100370000608ABFB027C06FB02CC0BFB03CCC01BCC
:1003800071EB0C01C1E70B46024641464846BDE809
:10039000F08B13B5084318BF4FF0FF300146AFF3A1
:1003A0000080BDE81C407047704770477047754635
:1003B00000F02CF8AE4605006946534620F00700D1
:1003C000854618B020B5FFF765FFBDE820404FF027
:1003D00000064FF000074FF000084FF0000BAC464E
:1003E000ACE8C009ACE8C009ACE8C009ACE8C00999
:1003F00021F007018D46704710B50446AFF3008029
:100400002046BDE81040FFF730BF000000487047AD
:100410001000002001491820ABBEFEE726000200B4
:1004200070470000FEE70000704700002DE9F04F24
:1004300082B000F13E4202F1FF72870542F20046AF
:1004400047EA9227C4F202060A2243F6004EB0425F
:1004500008BF0922C4F2010E092F38BF3A464FF0F7
:10046000010A002600274FF00008009208E000BFB4
:10047000023708F10108202F06F1040600F0AA80D7
:100480000A680AFA08F412EA0409F1D0D1F804C0A3
:10049000BCF1120F00F298800AFA0CF212F0061F5B
:1004A00000F092800323826803FA07F5CB68AA4321
:1004B000BB401A43826042684FEA1C13A24303FA0E
:1004C00008F34FEA480A6FEA050B1A434260C26814
:1004D0008B6802EA0B0203FA0AF31A434CF010038A
:1004E000122BC26013D16FF0030202EA58020244D9
:1004F00006F01C050F23D2F820C003FA05F40B699F
:100500002CEA0404AB4023431362D1F804C0026810
:100510000CF0030302EA0B0203FA0AF31A435FEA40
:10052000CC034FF0010A0260A2D5002243F6440337
:100530000192C4F202031A684FF6084C42F480425A
:100540001A601A68CFF6FF7C02F480420192019A89
:1005500028F00302724452F80C3006F00C050F2408
:10056000AC40A343009C04FA05F52B4342F80C3041
:10057000DEF800204B6842EA0905DC0358BF22EA96
:100580000905CEF80050DEF804209C0342EA090574
:1005900058BF22EA0905CEF80450DEF80820DC0234
:1005A00042EA090543F60C4458BF22EA0905CEF891
:1005B0000850C4F2010422689B0242EA090558BFB0
:1005C00022EA0905256053E70322BA406FEA020BCD
:1005D000BA467CE702B0BDE8F08F0000002A08BFF1
:1005E000090481617047000040F27000C2F200000F
:1005F0000068704740F2000040F27001C2F2000053
:10060000C2F2000100780A681044086070470000D8
:1006100080B543F60040C4F20200016841F4007165
:100620000160016841F480610160016841F48071FA
:100630000160032000F074F80F2000F005F800F0CE
:1006400027F8002080BD000070B540F20006C2F21D
:10065000000640F208013278C2F200014FF47A73CA
:100660000968B3FBF2F20446B1FBF2F1084600F070
:100670005BFB0F2C4FF0010508D838B94FF0FF3065
:1006800021460022002500F01FF87460284670BD46
:1006900082B0002043F640010190C4F202014A6892
:1006A00042F480424A604A6802F480420192019A10
:1006B0000090086840F080500860086800F08050A2
:1006C0000090009802B0704710B54EF60C5CCEF268
:1006D000000CDCF80030C3F3022E8EF00704042C6B
:1006E00028BF0424BEF103034FF0FF3E0EFA04F4CA
:1006F00038BF0023A14399400EFA03F39A431143F4
:1007000000F00F0200F160430901043A03F564436D
:100710006244002848BF02F10C03197010BD0000AC
:100720004EF60C51CEF200010A684FF6FF031A4054
:1007300060F30A2242F0806040F0FD70086070476C
:1007400070B582B00020019043F64000C4F2020070
:100750000168402641F0805101600068C4F20E2615
:1007600000F080500190019847F204050120C4F286
:1007700000053060FFF738FF044600BF2868C0035B
:1007800006D4FFF731FF001BB0F57A7FF6D90EE0F3
:1007900001207060FFF728FF044600BF286880032F
:1007A00008D4FFF721FF001BB0F57A7FF6D90320AC
:1007B00002B070BD002002B070BD0000002804BF70
:1007C000012070472DE9F04143F60808C4F2020801
:1007D0000446D8F8F8030D4600F00F00884207D20F
:1007E00088F8F853D8F8F80300F00F00A84277D142
:1007F0002068810717D5410705D5D8F8001041F4C6
:10080000E051C8F80010010705D5D8F8001041F4F0
:100810006041C8F80010D8F80010A26821F0F0017B
:100820001143C8F80010C00740D1D8F8F80300F011
:100830000F00A84207D988F8F853D8F8F80300F059
:100840000F00A8424CD12068410707D5D8F8001006
:10085000E26821F4E0511143C8F80010000708D500
:10086000D8F80000216920F4604040EAC100C8F8CF
:10087000000000F055F8D8F8001041F24232C1F300
:100880000311C0F60002515C40F2080220FA01F1A7
:1008900040F20400C2F200000068C2F200021160DF
:1008A000FFF7D2FE0020BDE8F08100BF6068811E26
:1008B000022907D258F8081C89015CBF0120BDE855
:1008C000F08111E0012807D158F8081C89035CBFAA
:1008D0000120BDE8F08107E058F8081C890703D41F
:1008E0000120BDE8F08100BFD8F8001021F003011D
:1008F0000843C8F80000FFF777FE064641F2883744
:10090000D8F80000616800F00C00B0EB810F8CD0CB
:10091000FFF76AFE801BB842F2D90320BDE8F081E0
:1009200010B543F60404C4F20204606800F00C0041
:1009300008280BD0042819BF42F20040C0F2F4008E
:1009400047F64000C0F27D1010BD00BF206821684E
:100950002368490247F64001C0F27D1100F03F02D2
:10096000C3F388105CBF42F20041C0F2F401A1FB66
:1009700000010023FFF7A0FC21680222C1F301411E
:1009800002EB4101B0FBF1F010BD0000002804BFF4
:10099000012070472DE9F04182B00446007843F60B
:1009A0000006C007C4F202060CD0B06800F00C00CC
:1009B000042840F081803068800303D560680028F7
:1009C00000F06081207880071BD5B06810F00C0F14
:1009D00009D0B06800F00C00082840F087807068EB
:1009E000400200F183803068800703D5E068012869
:1009F00040F048813068216920F0F80040EAC100E9
:100A000030602078000713D4207840072AD4A569E5
:100A1000002D00F03281B06800F00C00082840F092
:100A2000A180012D40F00E81012002B0BDE8F081CF
:100A30006069002840F20000C4F2472000F07E8088
:100A40000121C0F8801EFFF7CFFD0546706F8007BB
:100A5000DAD4FFF7C9FD401B0228F7D9032002B002
:100A6000BDE8F081306C5FEAC0080AD40020019034
:100A7000306C40F080503064306C00F08050019059
:100A8000019847F20007C4F200073868C00547D450
:100A9000386840F480703860FFF7A6FD054600BF57
:100AA0003868C0053CD4FFF79FFD401B0228F7D9EA
:100AB000032002B0BDE8F081B06800F00C00082807
:100AC00003D1706840023FF576AF6068B0F5803FB3
:100AD00007D0B0F5A02F40F09980306840F4802016
:100AE0003060306840F48030306099E0E068002881
:100AF0005CD00020C4F2472001210160FFF774FDA3
:100B0000054600BF306880073FF574AFFFF76CFD06
:100B1000401B0228F6D9032002B0BDE8F08100BFD7
:100B2000A068012805D0052854D1306F40F004009A
:100B30003067306F40F00100306755E00021C0F8A9
:100B4000801EFFF751FD0546706F80077FF55CAF93
:100B5000FFF74AFD401B0228F6D9032002B0BDE88A
:100B6000F08100BF0027C4F2472700203866FFF756
:100B70003BFD022D05460DD13068800140F1868095
:100B8000FFF732FD401B02284FF00300F4D902B0FA
:100B9000BDE8F081306880016FD5FFF725FD401B6F
:100BA00002284FF00300F5D9F1E700BF0020C4F29E
:100BB000472000210160FFF717FD054630688007D8
:100BC0007FF51FAFFFF710FD401B02284FF0030019
:100BD000F4D9DCE7316F002821F001013167316F72
:100BE00021F00401316773D0FFF7FEFC054641F2A6
:100BF000883700BF306F80077CD4FFF7F5FC401BBF
:100C0000B842F7D9032002B0BDE8F081316800286E
:100C100021F480313160316821F48021316073D05A
:100C2000FFF7E2FC054600BF306880033FF5CAAE1F
:100C3000FFF7DAFC401B6428F6D9032002B0BDE8B8
:100C4000F08100BF7068E16900F480028A4219D126
:100C5000216A00F03F028A4214D147F6C071626AED
:100C6000014091420ED1A16A00F440328A4209D17A
:100C7000E16A00F07060884204D1002002B0BDE853
:100C8000F08100BF012002B0BDE8F08104F11C0535
:100C90002FCD084340EA8210D9034FF6FF729143EB
:100CA000A1F5803140EA0560084370600120386694
:100CB000FFF79AFC044600BF30688001DDD4FFF7DF
:100CC00093FC001B02284FF00300F5D95FE700BF3B
:100CD000FFF78AFC054641F2883700BF306F800776
:100CE00008D5FFF781FC401BB8424FF00300F5D94F
:100CF0004DE700BFB8F1000F3FF589AE306C20F032
:100D00008050306483E600BFFFF76EFC054600BFED
:100D1000306880037FF556AEFFF766FC401B642801
:100D20004FF00300F4D932E7411E0020B0EB116F01
:100D30001CBF012070474EF21002CEF2000251603B
:100D40004EF62351CEF20001F0230B700721906084
:100D500011607047FEE7000082B0002043F63001CA
:100D60000190C4F202010A6842F080020A600A6837
:100D700002F080020192019A0090086840F00100A0
:100D80000860086800F001000090009802B0704709
:100D9000FEE70000FEE7000070B540F200440025C9
:100DA000C4F2020445F0B000C0B200F0C7F9102050
:100DB00000F0C4F90020002600F0C0F92046802190
:100DC0000122FFF70BFC204640210122FFF706FC21
:100DD000204680210022FFF701FC2046402100220E
:100DE000FFF7FCFB782000F021F8402000F01EF80F
:100DF000002000F01BF8204680210022FFF7EEFBC8
:100E0000204640210122FFF7E9FB204680210122F4
:100E1000FFF7E4FB701C46B2B6F1FF3FCEDCE8B250
:100E20000135072828BF70BDBCE70000B0B540F20F
:100E30000044C4F202040546C20920468021FFF79F
:100E4000CDFB204640210122FFF7C8FB2046402170
:100E50000022FFF7C3FBC5F3801220468021FFF775
:100E6000BDFB204640210122FFF7B8FB2046402170
:100E70000022FFF7B3FBC5F3401220468021FFF7A5
:100E8000ADFB204640210122FFF7A8FB2046402170
:100E90000022FFF7A3FBC5F3001220468021FFF7D5
:100EA0009DFB204640210122FFF798FB2046402170
:100EB0000022FFF793FBC5F3C00220468021FFF715
:100EC0008DFB204640210122FFF788FB2046402170
:100ED0000022FFF783FBC5F3800220468021FFF745
:100EE0007DFB204640210122FFF778FB2046402170
:100EF0000022FFF773FBC5F3400220468021FFF775
:100F00006DFB204640210122FFF768FB204640216F
:100F10000022FFF763FB05F0010220468021FFF766
:100F20005DFB204640210122FFF758FB204640216F
:100F30000022FFF753FB204640210122FFF74EFB22
:100F4000204640210022BDE8B040FFF747BB00002B
:100F500010B586B0002043F6300105900090C4F231
:100F600002010A6840F2004442F002020A60096885
:100F7000C4F2020401F0020100910099C021019124
:100F80001121CDE90210049001A92046FFF74EFA85
:100F9000204640210122FFF721FB2046802101222B
:100FA000FFF71CFBAE2000F0C9F8D52000F0C6F812
:100FB000802000F0C3F8A82000F0C0F83F2000F027
:100FC000BDF8D32000F0BAF8002000F0B7F84020B8
:100FD00000F0B4F8A12000F0B1F8C82000F0AEF89D
:100FE000DA2000F0ABF8122000F0A8F8812000F021
:100FF000A5F8CF2000F0A2F8D92000F09FF8F1204A
:1010000000F09CF8DB2000F099F8302000F096F812
:10101000A42000F093F8A62000F090F88D2000F0B6
:101020008DF8142000F08AF8AF2000F087F8FFF761
:10103000B3FE06B010BD00002DE9F04780467E20CB
:1010400000EB480017466FF0070240F0B00002EBDB
:10105000C104C0B2E5B200F071F8280900F110092E
:10106000484600F06BF804F0080A504600F066F8B5
:1010700041F25230C0F6000000EB07114FF600605D
:10108000CFF6FF70085CA1F5007600F08BF8707861
:10109000B778F478357900F085F8384600F082F8B2
:1010A000204600F07FF8284600F07CF8707900F0C8
:1010B00079F8B07900F076F8F07900F073F84FF035
:1010C000FF3000EB480040F0B000C0B200F036F84E
:1010D000484600F033F8504600F030F8307A00F01F
:1010E00061F8707A00F05EF8B07A00F05BF8F07AA0
:1010F00000F058F8307B00F055F8707B00F052F8A3
:10110000B07B00F04FF8F07BBDE8F04700F04AB844
:10111000F0B581B0144612786AB10D460646002734
:101120007819C1B2D2B23046FFF786FF0137F8B264
:10113000225C002AF4D101B0F0BD0000B0B540F24D
:101140000044C4F202040546204680210122FFF734
:1011500045FA204640210122FFF740FA204680212F
:101160000022FFF73BFA204640210022FFF736FA23
:101170007820FFF75BFE0020FFF758FE2846FFF7B8
:1011800055FE204680210022FFF728FA2046402104
:101190000122FFF723FA204680210122BDE8B0405A
:1011A000FFF71CBAB0B540F20044C4F20204054691
:1011B000204680210122FFF711FA2046402101221A
:1011C000FFF70CFA204680210022FFF707FA20469D
:1011D00040210022FFF702FA7820FFF727FE402087
:1011E000FFF724FE2846FFF721FE2046802100223B
:1011F000FFF7F4F9204640210122FFF7EFF92046DE
:1012000080210122BDE8B040FFF7E8B97047000037
:1012100070470000FFF7EEB980B592B0002043F6AA
:1012200040010B90CDE90900CDE907000590CDE91B
:101230000300CDE901000090C4F202010A6842F007
:1012400080520A60096801F080510091009947F2CC
:1012500000010090C4F200010A6842F440420A60B2
:101260000968012201F44041009100990221CDE971
:101270000C1008200E90B420CDE90F010420099233
:101280001022119006A806910A92FFF77FFB28B161
:10129000EFF3108072B600BFFEE700BFFFF750FA11
:1012A00020B1EFF3108072B6FEE700BF0F2001906F
:1012B00002200290002003904FF4A05004904FF4BD
:1012C0008050059001A80521FFF778FA20B1EFF3CF
:1012D000108072B6FEE700BF12B080BD4EF6885097
:1012E000CEF20000016841F4700101604FF000612E
:1012F00040F8801C70470000FEE70000FFF788F907
:10130000FFF78AFFFFF724FE012001214122FFF7AA
:1013100093FE04A201200521FFF7FAFEFFF71CFD52
:10132000FEE700BF414D4800F1EE100A4FF6FF7195
:10133000C0F2C03120EA010040F04070E1EE100A36
:1013400070470000000000000000010203040607CF
:10135000080900000000000000000000000000007C
:101360000000000000F80000000000000033300022
:10137000000000100C06100C060000000000000029
:10138000000040C07840C0784000043F04043F049F
:101390000400007088FC08300000001820FF211EA7
:1013A0000000F008F000E018000000211C031E21DE
:1013B0001E0000F00888700000001E212324192759
:1013C000211010160E0000000000000000000000B8
:1013D0000000000000E018040200000000071820D0
:1013E000400000020418E000000000402018070040
:1013F0000000404080F0804040000202010F0102E6
:101400000200000000F0000000000101011F0101C6
:101410000100000000000000000080B0700000002B
:1014200000000000000000000000000101010101B7
:10143000010100000000000000000030300000004A
:101440000000000000008060180400601806010021
:10145000000000E010080810E000000F102020102D
:101460000F00001010F8000000000020203F202096
:10147000000000700808088870000030282422212D
:1014800030000030088888483000001820202011E3
:101490000E000000C02010F8000000070424243FC4
:1014A000240000F80888880808000019212020116D
:1014B0000E0000E0108888180000000F1120201195
:1014C0000E0000380808C83808000000003F00007F
:1014D00000000070880808887000001C222121226A
:1014E0001C0000E010080810E0000000312222116A
:1014F0000F00000000C0C0000000000000303000FD
:10150000000000000080000000000000806000007B
:1015100000000000804020100800000102040810B4
:1015200020004040404040404000040404040404C3
:101530000400000810204080000000201008040271
:101540000100007048080808F00000000030360173
:101550000000C030C828E810E00007182724231432
:101560000B000000C038E0000000203C23020227EE
:10157000382008F8888888700000203F202020113B
:101580000E00C03008080808380007182020201076
:10159000080008F808080810E000203F202020106C
:1015A0000F0008F88888E8081000203F202023203A
:1015B000180008F88888E8081000203F2000030081
:1015C0000000C03008080838000007182020221E3C
:1015D000020008F808000008F808203F2101012156
:1015E0003F20000808F8080800000020203F2020C5
:1015F000000000000808F8080800C08080807F0014
:10160000000008F888C028180800203F200126386C
:10161000200008F8080000000000203F20202020C3
:10162000300008F8F800F8F80800203F003F003FBD
:10163000200008F830C00008F808203F20000718F4
:101640003F00E01008080810E0000F1020202010D4
:101650000F0008F808080808F000203F21010101E8
:101660000000E01008080810E0000F18242438508B
:101670004F0008F8888888887000203F2000030CFD
:101680003020007088080808380000382021212206
:101690001C00180808F8080818000000203F200067
:1016A000000008F808000008F808001F202020208B
:1016B0001F000878880000C83808000007380E01AD
:1016C0000000F80800F80008F800033C0700073C99
:1016D0000300081868808068180820302C03032C49
:1016E00030200838C800C83808000000203F20001B
:1016F000000010080808C8380800203826212020DB
:101700001800000000FE020202000000007F4040BE
:101710004000000C30C0000000000000000106384E
:10172000C00000020202FE000000004040407F00B6
:10173000000000000402020204000000000000009B
:101740000000000000000000000080808080808099
:101750008080000202040000000000000000000081
:1017600000000000808080800000001924222222D6
:101770003F2008F8008080000000003F1120201169
:101780000E000000008080800000000E112020204C
:101790001100000000808088F800000E1120201049
:1017A0003F200000808080800000001F2222222233
:1017B0001300008080F0888888180020203F2020B7
:1017C00000000000808080808000006B94949493DF
:1017D000600008F8008080800000203F2100002089
:1017E0003F2000809898000000000020203F20202B
:1017F0000000000000809898000000C08080807F7A
:10180000000008F8000080808000203F24022D3076
:101810002000000808F8000000000020203F2020E1
:1018200000008080808080808000203F20003F205A
:10183000003F8080008080800000203F2100002049
:101840003F200000808080800000001F202020209A
:101850001F00808000808000000080FFA1202011F8
:101860000E000000008080808000000E112020A06B
:10187000FF80808080008080800020203F21200029
:101880000100000080808080800000332424242414
:101890001900008080E0808000000000001F2020F0
:1018A00000008080000000808000001F20202010A9
:1018B0003F20808080000080808000010E3008067C
:1018C000010080800080008080800F300C030C308D
:1018D0000F0000808000808080000020312E0E31BB
:1018E0002000808080000080808080818E701806BB
:1018F000010000808080808080000021302C222127
:10190000300000000000807C020200000000003F68
:10191000404000000000FF00000000000000FF0049
:1019200000000002027C800000000040403F0000F8
:101930000000000601010202040400000000000093
:1019400000000000681900080000002010000000DE
:101950001002000878190008100000206806000036
:10196000300200080000000001000000100000002C
:081970000024F4000000000057
:04000005080001AD41
:00000001FF
