:020000040800F2
:1000000000080020C101000801350008E1310008A6
:10001000FD340008D1090008853D000800000000FB
:100020000000000000000000000000009D3A0008F1
:100030008510000800000000993A0008A13A000865
:10004000DB010008DB010008DB010008DB01000820
:10005000DB010008DB010008DB010008DB01000810
:10006000DB010008DB010008DB010008DB01000800
:10007000DB010008DB010008DB010008DB010008F0
:10008000DB010008DB010008DB010008DB010008E0
:10009000DB010008DB010008DB010008DB010008D0
:1000A000DB010008DB010008DB010008DB010008C0
:1000B000C13A0008DB010008DB010008DB01000891
:1000C000DB010008DB010008DB010008DB010008A0
:1000D000DB0100086D3D0008793D0008DB010008E8
:1000E000DB010008DB010008DB010008DB01000880
:1000F000DB010008DB010008DB010008DB01000870
:10010000DB010008DB010008DB010008DB0100085F
:10011000DB010008DB010008DB010008CD3A000824
:10012000DB010008DB010008DB010008DB0100083F
:10013000DB010008DB010008DB010008DB0100082F
:10014000DB010008DB010008DB010008DB0100081F
:10015000DB010008DB010008DB010008DB0100080F
:10016000DB010008DB010008DB010008DB010008FF
:10017000DB010008DB010008DB01000800000000D3
:10018000DB010008DB010008DB010008DB010008DF
:10019000DB010008DB010008DB010008DB010008CF
:1001A000DB010008DB010008DB010008DFF80CD0F0
:1001B00000F094FB00480047C13D00080008002003
:1001C0000648804706480047FEE7FEE7FEE7FEE7F1
:1001D000FEE7FEE7FEE7FEE7FEE7FEE7A53A0008DA
:1001E000AD0100082DE9F05F0546002092469B46D0
:1001F00088460646814640241BE02846414647463D
:10020000224600F04DFA53465A46C01A914110D387
:1002100011461846224600F034FA2D1A67EB010801
:100220004F4622460120002100F02BFA17EB00096F
:100230004E41201EA4F10104DFDC484631462A4627
:100240004346BDE8F09F421C10F8011B0029FBD17A
:10025000801A704770B5064603F06AFF04680546C9
:100260000A220021304600F03DFA2C6070BD2DE9D5
:10027000FE4F804681EA0300C00F0C46009021F03B
:10028000004123F00045B8EB0200A94105D24046E9
:10029000214690461C460B46024623F00040104380
:1002A00047D0270DC7F30A00C3F30A510290401A42
:1002B000019040286BDAC3F3130040F4801B0098D0
:1002C000924620B10023D2EB030A63EB0B0B01989B
:1002D0005946C0F14002504600F0D3F906460D469B
:1002E00050465946019A00F0EBF910EB08006141C5
:1002F000002487EA115284EAE7731A4340D0009A37
:1003000062B3019A012A4FEA075215DC001B61EB28
:1003100002014FF0004202EA0752CDE90042001C00
:1003200041F5801132462B4600F05AFA03B0BDE881
:10033000F08F40462146F9E7001B61EB0201001CEB
:1003400041F5801300185B412018A2F5001747EB18
:10035000030140EAD570B6196D4111E06D084FEA0E
:10036000360645EAC0754FEA0752001B61EB0201F1
:10037000001C41F5801149084FEA30000019514135
:1003800032462B4603B0BDE8F04F00F01ABA009891
:10039000012240000023D0EB020263EBE0730098DF
:1003A00021464FEAE074B8EB000061EB0401E9E795
:1003B00083F000435BE781F0004158E72DE9FE4FF1
:1003C00081EA030404F0004421F0004100944FF05E
:1003D000000B23F0004350EA01045ED052EA03040C
:1003E0005BD0C3F30A54C1F30A552C44A4F2F3348E
:1003F0000194A0FB0254C1F3130141F48011C3F333
:10040000130343F4801301FB024400FB034E840AF0
:10041000970A44EA815447EA8357A4FB0768029588
:100420008D0A05FB07854FEA932C04FB0C54270526
:10043000029D4FEA065847EA1637B5EB08056EEB02
:10044000070C870E920E47EA811742EA8312A7FB38
:100450000201B6EB0B0164EB00042B0D43EA0C33F5
:100460005E1844EB1C50DA465146E7FB0201C5F327
:1004700013044FEA0B3343EA14534FEA0432019C4E
:1004800043EA0603A4F10C040294009CCDE900B4F5
:1004900000F0A6F903B0BDE8F08F00200146F9E7AF
:1004A0002DE9F04D81EA030404F0004B21F00045F2
:1004B00014464FF0000A23F0004150EA050220D014
:1004C00054EA01021DD0C5F30A570246C5F31303CF
:1004D000C1F31300C1F30A5640F4801543F48013AE
:1004E000A7EB0608101BD64608F2FD3873EB050093
:1004F00002D308F1010801E092185B41B8F1000F46
:1005000003DA00200146BDE8F08D00204FF4801191
:10051000064684460EE0171B73EB050705D3121B36
:1005200063EB050306434CEA010C49084FEA30002F
:1005300092185B4150EA0107EDD152EA030012D054
:1005400082EA040083EA0501084305D0101BAB4191
:1005500006D20122002306E000224FF0004302E011
:100560006FF0010253101AEB06004CEB085110EB30
:100570000A0041EB0B01BDE8F04D00F022B90EB5C9
:10058000C10F80EAE0700844CA07002140F23343FB
:100590008DE80E000A460B4600F022F903B000BDBC
:1005A0000EB540F2334102910021CDE900110A4617
:1005B0000B4600F015F903B000BD70B5C1F30A5247
:1005C00001F000450024C1F3130140F2FF3341F470
:1005D00080119A4201DA002070BD40F233439A4202
:1005E000A2F2334203DC524200F05AF800E090409D
:1005F0002C43F1D0404270BD00F0004230F000408A
:100600000AD0C10D01F56071C0F3160042EA015134
:10061000C20840071143704700200146704701F0AF
:10062000004330B421F0004150EA010206D00A0D27
:10063000A2F56072C1F31301002A02DC30BC002075
:100640007047440F44EAC104C100E01830BC00EB1D
:10065000C25000F07FB830B50B4601460020202282
:10066000012409E021FA02F59D4205D303FA02F5BF
:10067000491B04FA02F52844151EA2F10102F1DC1F
:1006800030BD202A04DB203A00FA02F10020704736
:100690009140C2F1200320FA03F3194390407047C0
:1006A000202A04DB203A21FA02F00021704721FAC7
:1006B00002F3D040C2F1200291400843194670472E
:1006C000202A06DBCB17203A41FA02F043EAE07316
:1006D00006E041FA02F3D040C2F120029140084303
:1006E000194670472DE9F04791460F46804604466B
:1006F000002614F8015B2DB100F008F90068405D98
:10070000C007F6D12B2D02D02D2D18D0641E4A46DD
:100710003946204600F0FEF827B13968A14201D1E0
:10072000C7F8008071054FF002040BD54042002845
:1007300003DD03F0FDFC0460A007BDE8F08746F48C
:100740008066E4E70028F8DA03F0F2FC04606FF05A
:100750000040F2E70029A8BF7047401C490008BFCD
:1007600020F00100704710B4B0FA80FC00FA0CF0E1
:1007700050EA010404BF10BC704749B1CCF1200419
:1007800021FA04F411FA0CF118BF012121430843A6
:10079000A3EB0C01CB1D4FEA00614FEA102042BFD2
:1007A000002010BC704700EBC35010440029A4BFC8
:1007B00010BC7047401C490008BF20F0010010BC6D
:1007C000704710B5141E73F1000408DA401C41F1A3
:1007D000000192185B411A4301D120F0010010BDC5
:1007E0002DE9F04D92469B4611B1B1FA81F202E03B
:1007F000B0FA80F220329046FFF743FF04460F46DE
:1008000040EA0A0041EA0B0153465A46084313D016
:10081000114653EA010019D0C8F140025046FFF7D3
:100820003FFF05460E46504659464246FFF729FF10
:10083000084305D0012004E020463946BDE8F08D8C
:100840000020054346EAE0762C4337430A986305C7
:10085000E40AA0EB08000022FD0A44EA47540A30EB
:1008600002D500200146E9E7010510196941DDE9DB
:10087000084500196941BDE8F04DA2E7C1F30A52ED
:10088000C1F3130140F2FF3341F480119A4202DABE
:1008900000200146704740F233439A42A2F23342AD
:1008A00002DC5242FFF7FCBEFFF7EBBE30B5041E80
:1008B00071F1000404DB4FF00044404264EB01019D
:1008C000141E73F1000405DB1C464FF00043524236
:1008D00063EB0403994208BF904230BD1CB5094840
:1008E0000090094801900546009C06E0E06840F051
:1008F000010394E8070098471034AC42F6D3FFF7A1
:1009000059FC0000B0500008D05000080048704763
:10091000A44A00082DE9F05F8246007800271546BA
:100920008B460AF10104B946302801D09DB113E08D
:1009300014F8010B0127782803D0582801D045B1BD
:100940000AE00DB1102D07D10027102514F8010B76
:1009500002E0082500E00A250026B0460EE005FB6F
:10096000080005FB06F1012701EB10461FFA80F88D
:10097000B6F5803F00D3B94614F8010B294600F0C4
:1009800018F80028EBDABBF1000F05D00FB1641E98
:1009900000E05446CBF80040B9F1000F06D003F058
:1009A000C7FB02210160C81EBDE8F09F48EA06406F
:1009B000FAE73A2800D2303820F02002412A01D349
:1009C000A2F13700884201D34FF0FF30704700009A
:1009D000FEE70000000000002DE9F04186B041F282
:1009E0000004C4F20204002604274FF00108032586
:1009F00001A9204605960197CDE90286049500F0ED
:100A000011FE20460421002200F0EAFE40F2EE2012
:100A100003F0BAF920460421012200F0E1FE0F2084
:100A200003F0B2F900F098F8CC2000F033FA44203B
:100A300000F030FA01A920460596CDE90178CDE90C
:100A4000036500F0EFFD20460421002200F0C8FEFF
:100A500040F2EE2003F098F920460421012200F034
:100A6000BFFE0F2003F090F900F076F8CC2000F0E4
:100A700011FABE2000F00EFA00F0B6F8044600F0BD
:100A8000B3F844EA002000B2B0F1FF3FDCBFC0433E
:100A900018FA80F0FFF773FD41EC100B9FED081B77
:100AA00051EC100B53EC112BFFF788FCFFF7B7FD4F
:100AB00000EE100A06B0BDE8F08100BF00BF00BF25
:100AC000000000000000B03F2DE9F04186B0002595
:100AD00043F6300005950095C4F20200016841F22A
:100AE000000441F0100101600068C4F2020400F04B
:100AF0001000009000984FF004080127032601A978
:100B00002046CDF80480CDE90275049600F08AFDF8
:100B100020460421012200F063FE01A9204605952C
:100B2000CDE90187CDE9035600F07CFD2046042184
:100B3000002200F055FE40F2EE2003F025F9204699
:100B40000421012200F04CFE0F2003F01DF900F0FB
:100B500003F806B0BDE8F081B0B586B041F20004FC
:100B600000200421C4F20204CDE90400CDE9011003
:100B70000120039001A9204600F054FD20460421E5
:100B800000F028FE90B100200546012003F0FCF89B
:100B90002046042100F01EFE18B1632D05F101006E
:100BA000F2D3622D02D9012006B0B0BD2046042147
:100BB00000F010FE10B1002006B0B0BD002000BF54
:100BC0000546012003F0E0F82046042100F002FE73
:100BD00018B9EF2D05F10100F2D30020EE2D88BFEA
:100BE000012006B0B0BD00002DE9F04F85B041F204
:100BF00000040320C4F202046E4600274FF0040BE9
:100C00004FF001080390204631460497CDF800B01C
:100C1000CDE901874FF0030A00F004FD20460421CE
:100C2000002200F0DDFD0A2003F0AEF8E946204680
:100C300049460497CDE900B7CDE9028700F0F2FC00
:100C40002046042100F0C6FD0138B0FA80F04509C5
:100C50002D2003F099F8204631460497CDE900B8DD
:100C6000CDE9027A00F0DEFC20460421002200F0EB
:100C7000B7FD0A2003F088F8204649460497CDE9DD
:100C800000B7CDE9028700F0CDFC2046042100F03A
:100C9000A1FD0138B0FA80F04FEA501A2D2003F080
:100CA00073F8032003902046314645EA4A0504972D
:100CB000CDE900B80297B24600F0B4FC204604210A
:100CC000002200F08DFD0A2003F05EF82046494620
:100CD0000497CDE900B7CDE9028700F0A3FC2046D8
:100CE000042100F077FD0138B0FA80F046092D208C
:100CF00003F04AF8032003902046514645EA860552
:100D00000497CDE900B8029700F08CFC204604213E
:100D1000002200F065FD0A2003F036F8204649461F
:100D20000497CDE900B7CDE90287CA4600F07AFC06
:100D30002046042100F04EFD0138B0FA80F046094B
:100D40002D2003F021F8032003902046694645EA50
:100D5000C6050497CDE900B80297894600F062FC09
:100D600020460421002200F03BFD0A2003F00CF88D
:100D7000204651460497CDE900B7CDE9028700F03F
:100D800051FC2046042100F025FD0138B0FA80F026
:100D900046092D2002F0F8FF032003902046494623
:100DA00045EA06150497CDE900B8029700F03AFC31
:100DB00020460421002200F013FD0A2002F0E4FF87
:100DC000204651460497CDE900B7CDE9028700F0EF
:100DD00029FC2046042100F0FDFC0138B0FA80F027
:100DE00046092D2002F0D0FF0320039020464946FB
:100DF00045EA46150497CDE900B8029700F012FCC9
:100E000020460421002200F0EBFC0A2002F0BCFF87
:100E1000204651460497CDE900B7CDE9028700F09E
:100E200001FC2046042100F0D5FC0138B0FA80F026
:100E300046092D2002F0A8FF0320039020464946D2
:100E400045EA86150497CDE900B8029700F0EAFB61
:100E500020460421002200F0C3FC0A2002F094FF87
:100E6000204651460497CDE900B7CDE9028700F04E
:100E7000D9FB2046042100F0ADFC0138B0FA80F027
:100E800044092D2002F080FF45EAC410C0B205B02D
:100E9000BDE8F08F2DE9F04786B0042107464FFAF0
:100EA00080FA00200191012141F200040590CDE972
:100EB00002100320C4F20204049001A9204600F0AD
:100EC000B1FB20460421002207F0010500F088FC58
:100ED000002D4FF008004FF03A054FF0080908BF09
:100EE00046204FF03A0808BF022502F04DFF204689
:100EF0000421012200F074FC284602F045FF17F09F
:100F000002004FF008054FF03A0620464FF004016A
:100F10004FF0000208BF462508BF022600F060FC23
:100F2000284602F031FF20460421012200F058FC3F
:100F3000304602F029FF17F004004FF008054FF08B
:100F40003A0620464FF004014FF0000208BF462544
:100F500008BF022600F044FC284602F015FF204698
:100F60000421012200F03CFC304602F00DFF17F096
:100F700008004FF008054FF03A0620464FF00401F4
:100F80004FF0000208BF462508BF022600F028FCEB
:100F9000284602F0F9FE20460421012200F020FC40
:100FA000304602F0F1FE17F010004FF008054FF048
:100FB0003A0620464FF004014FF0000208BF4625D4
:100FC00008BF022600F00CFC284602F0DDFE204699
:100FD0000421012200F004FC304602F0D5FE17F097
:100FE00020004FF008054FF03A0620464FF004016C
:100FF0004FF0000208BF462508BF022600F0F0FBB4
:10100000284602F0C1FE20460421012200F0E8FB40
:10101000304602F0B9FE17F040004FF008054FF0DF
:101020003A0620464FF004014FF0000208BF462563
:1010300008BF022600F0D4FB284602F0A5FE204699
:101040000421012200F0CCFB304602F09DFE204638
:1010500004210022BAF1FF3FC4BF4FF002084FF055
:10106000460900F0BDFB484602F08EFE20460421F2
:10107000012200F0B5FB404602F086FE06B0BDE856
:10108000F0870000704700007047000070B581B025
:101090000022009290F83C20012A03D10221084648
:1010A00001B070BDD1F800E00122BEF10A0F1FFAB5
:1010B0008EFC80F83C2009D34FEA4C02036812FAF8
:1010C0008EF2A2F11E0403F10C0204E003680EEBA1
:1010D0004E0403F1100207251668A54026EA05050F
:1010E00015608D68166805FA04F434431460496885
:1010F000062907D801EB81014A1F194651F8345FD0
:101100000FE000BF0C2901EB810105D8A1F12302FA
:10111000194651F8305F04E0A1F14102194651F837
:101120002C5F1F24944025EA04040C600CFA02F2A0
:101130000C6842F2043CC4F2010C2243ACF5417449
:10114000A3420A6006D0002180F83C10084601B096
:1011500070BD00BF1221BEF1110FC1F2000118BF16
:101160008E453BD1DCF800208E4522F48002CCF87D
:101170000020DCF8002042F40002CCF80020E2D18C
:1011800040F20C01C2F2000109684DF68362C4F21C
:101190001B32A1FB0212910C01EB8101490000916D
:1011A00000990029CFD000BF009901390091009922
:1011B0000029C8D000990139009100990029C2D0B6
:1011C00000990139009100990029BCD0009901399A
:1011D000009100990029E7D1B5E700BFBEF1120FD9
:1011E000B1D1DCF8001021F40001CCF80010DCF8DB
:1011F000001041F48001CCF80010A4E70068C06C36
:1012000070470000002804BF0120704710B5044655
:10121000006C00283ED0206CC00645D4206C41F202
:1012200002118843023042F204312064C4F2010109
:10123000086820F4403008600A6894E809101A43EE
:10124000D4F810E00A604168012321F48071416004
:101250004168C0F6007341EA0E214160416821F007
:1012600040714160416841EA0C014160816821F4AC
:1012700000618160E168826811438160A16A8268CF
:10128000994222F070628260826813D122F040514C
:1012900019E000BF204600F065F80020606484F883
:1012A0003C00206CC006B9D50120002184F83C1018
:1012B00010BD00BF11438160816821F04051816001
:1012C000E16A826811438160816821F002018160D6
:1012D0008168227E94F8203041EA420181604168B1
:1012E00083B141F40061416041684EF2000221F493
:1012F00060414160616ACFF6FF72436802EB4131A1
:10130000194301E021F400614160C16A40F2000C20
:1013100021F47001C162E2696169CFF6F07CC36AB1
:101320000CEB02521A43C262826822F4007282609D
:1013300094F83020836843EA42228260826822F473
:1013400080628260826842EA81218160002060645C
:10135000216C012262F301012164002184F83C1018
:1013600010BD000080B586B042F200210068C4F2D2
:101370000101002288420592049201D006B080BD8E
:1013800043F630000092C4F20200436943F48063E4
:101390004361436903F480630093009B00920368F8
:1013A00043F020030360006800F0200000900098E4
:1013B0004FF4806001900320CDE9020201F57240F4
:1013C00001A900F02FF906B080BD000070B50446F9
:1013D00000680D468268520544BF80685FEAC050CD
:1013E0002ED400F003FA21680A6892071BD4002D5E
:1013F00048D00646681C0DD10868800713D40868D9
:1014000080075CBF08685FEA80700CD408688007BA
:10141000F2D508E000F0EAF9801BA84232D8216832
:1014200008688007F6D56FF012000860206C40F461
:1014300000702064886810F0405F0BD0002070BD01
:10144000206C40F020002064002084F83C00012043
:1014500070BD00BF207E0028F0D1C86A10F4700F64
:1014600002D088684005E9D4206C20F480702064A4
:10147000206CC004E2D4206C40F001002064002005
:1014800070BD00BF206C40F004002064002084F890
:101490003C00032070BD000081B00021009190F855
:1014A0003C10012902BF022001B0704701220168EF
:1014B00080F83C208A68D20729D18A684DF6836378
:1014C00042F001028A6040F20C02C2F2000212688D
:1014D000C4F21B33A2FB03239A0C02EB42020092DC
:1014E000009AA2B1009A013A0092009A7AB1009A49
:1014F000013A0092009A52B1009A013A0092009A81
:101500002AB1009A013A0092009A002AEAD18A6828
:10151000D20729D0026C40F201739A4302F580721F
:1015200002644A68520504D5026C012363F30D324C
:101530000264026C0023D2044FF0000244BF426CEC
:1015400022F0060242F2043C426480F83C306FF024
:101550002200C4F2010C0860DCF80000C00607D0CD
:10156000ACF54170814227D0002001B0704700BF28
:1015700042F20000C4F20100814217D042F2002082
:10158000C4F2010081420DD042F20010C4F2010009
:101590008142E9D1DCF80000C00607D0ACF58270CA
:1015A0008142E1D1DCF80000C006DDD4886810F08B
:1015B000405FD9D109E000BF4FF60450CFF6FF706D
:1015C0005CF8000010F0405FCED1886840F08040A9
:1015D0008860002001B0704790F83510022909D1C9
:1015E000052180F835100068016821F001010160D3
:1015F000002070478021416501207047B0B5044646
:1016000000F0F4F8054640F20400C2F20000007851
:10161000611C18BF044400BF00F0E8F8401BA04262
:10162000FAD3B0BD2DE9F04F82B000F13E4202F195
:10163000FF72870542F2004647EA9227C4F202068B
:101640000A2243F6004EB04208BF0922C4F2010E3E
:10165000092F38BF3A464FF0010A002600274FF005
:101660000008009208E000BF023708F10108202FAF
:1016700006F1040600F0AA800A680AFA08F412EAE1
:101680000409F1D0D1F804C0BCF1120F00F2988027
:101690000AFA0CF212F0061F00F09280032382680F
:1016A00003FA07F5CB68AA43BB401A43826042683D
:1016B0004FEA1C13A24303FA08F34FEA480A6FEA01
:1016C000050B1A434260C2688B6802EA0B0203FAF8
:1016D0000AF31A434CF01003122BC26013D16FF0BF
:1016E000030202EA5802024406F01C050F23D2F856
:1016F00020C003FA05F40B692CEA0404AB40234331
:101700001362D1F804C002680CF0030302EA0B0272
:1017100003FA0AF31A435FEACC034FF0010A0260AE
:10172000A2D5002243F644030192C4F202031A68D0
:101730004FF6084C42F480421A601A68CFF6FF7CDC
:1017400002F480420192019A28F00302724452F896
:101750000C3006F00C050F24AC40A343009C04FAA7
:1017600005F52B4342F80C30DEF800204B6842EAC6
:101770000905DC0358BF22EA0905CEF80050DEF85F
:1017800004209C0342EA090558BF22EA0905CEF865
:101790000450DEF80820DC0242EA090543F60C4456
:1017A00058BF22EA0905CEF80850C4F201042268A5
:1017B0009B0242EA090558BF22EA0905256053E762
:1017C0000322BA406FEA020BBA467CE702B0BDE8DA
:1017D000F08F00000069084018BF0120704700002A
:1017E000002A08BF090481617047000040F2F83008
:1017F000C2F200000068704790F83D20202A1CBF0C
:1018000002207047242280F83D200268136823F0EC
:1018100001031360536A23F010035362536A1943A0
:101820005162116841F001011160202180F83D10E2
:101830000020704790F83D20202A1CBF02207047EE
:10184000242280F83D20026889B2136823F0010346
:101850001360D2F824C04FF6F07303EA0C03194367
:101860005162116841F001011160202180F83D10A2
:1018700000207047002804BF01207047F0B581B0F8
:10188000044690F83D0028B9002084F83C0020462A
:1018900000F0BCFA242084F83D002068016821F0A3
:1018A00001010160016841F400410160016821F417
:1018B0000041016000F088FC636848F2A16CC0F24E
:1018C000010C40F60011C0F23D0163453CBF48F2F7
:1018D0008041C0F21E01884202D2012001B0F0BD59
:1018E0004DF68361C4F21B31A0FB01122168970CF5
:1018F000D1F804E04FF496762EF03F0545EA924584
:101900004D60774348F638160D6AC0F24106A7FBD2
:10191000067625F03F07634538BF960C721C3A43A4
:101920000A62CA6948F2A0664CF6FF77C0F2010667
:10193000B34222EA07020BD801385B00B0FBF3F098
:1019400001306FF31F30042898BF04201BE000BF54
:10195000A768013857B119277B43B0FBF3F001307A
:101960006FF31F3070B100F5804007E003EB4303D5
:10197000B0FBF3F001306FF31F3018B100F50040F9
:1019800001E000BF01201043C8610868D4E90723C3
:1019900020F0C000104318430860886848F2FF3206
:1019A00004F10C0790438CCF18431043A66988605C
:1019B000C86820F0FF0038433043C860086840F032
:1019C0000100086000202021206484F83D1020637D
:1019D00084F83E0001B0F0BD2DE9F04381B01F4610
:1019E000164688460446FFF701FF94F83D1020296B
:1019F00020D1054620688169890717D5FFF7F6FED3
:101A0000401B1928F6D900202021206384F83D10BE
:101A100084F83E00216C022641F02001216484F804
:101A20003C00304601B0BDE8F08300BF94F83C10A4
:101A3000012905D10226304601B0BDE8F08300BF80
:101A4000012184F83C100168C90703D1016841F005
:101A500001010160016821F400610160212184F825
:101A60003D10102184F83E100021216466626785D4
:101A7000618D21850021CFF6FF71E162E16A11F5E8
:101A8000803F18BF012919D1016841F480710160BC
:101A90004169DDF82090C90723D119F1010116D061
:101AA000B9F1000F48D000BFFFF7A0FE401B48452A
:101AB00044D820684169C907F6D012E00829E3D06C
:101AC000216B1229E0D0E3E74169C90709D14169D7
:101AD000C90706D14169C90704BF41695FEAC171FD
:101AE000F2D02169B1F5804F02D1FE215DE000BF47
:101AF000062101EAD811F03101614169090753D487
:101B0000416919F101024FEA415131D0002900F138
:101B10008380B9F1000F00F03981FFF767FE401BA9
:101B2000484500F235812068416909073CD4416984
:101B30004905F2D570E000BFFFF758FE00202021D4
:101B4000206384F83D1084F83E00216C012641F0AA
:101B500020012164216884F83C000868C00544BF66
:101B60004FF400702064304601B0BDE8F08300BF40
:101B7000002951D44169090716D4416949054BD45C
:101B80004169090710D44169490545D441690907EC
:101B90000AD4416949053FD44169090704D4416920
:101BA0004905E7D538E000BFFF2101EA08010161DE
:101BB000416989073AD4416919F101022AD04905DE
:101BC0002AD4B9F1000F00F0E180FFF70FFE401BAF
:101BD000484500F2DD8020684169890726D44169C3
:101BE0004905F2D518E000BF416989071ED4416953
:101BF000490511D44169890718D4416949050BD4B5
:101C00004169890712D44169490505D441698907A9
:101C10000CD441694905E7D5016841F400710160C0
:101C20006FF4806141610420B3E000BF002600969C
:101C300041690091816900910099218D002900F08E
:101C4000958009F10108014651F8142F120635D488
:101C5000B8F1000F16D0B9F1000F00F0AB8000BF53
:101C60000868400500F1AE80FFF7C0FD401B484505
:101C700000F2A5802068014651F8142F1206EFD516
:101C80001CE000BF0A68520500F19C800A68120639
:101C900014D40A68520500F195800A6812060DD422
:101CA0000A68520500F18E800A68120606D40A6896
:101CB000520500F187800A681206E3D5636A194667
:101CC00011F8012B02616162618D01396185278DF7
:101CD0000146A7F1010CA4F828C051F8142F5207AF
:101CE0000DD55FEA0C420AD05A78A7F1020C0261C6
:101CF0009A1C6262628D013A6285A4F828C00A6863
:101D000052072FD4B8F1000F14D0B9F1000F51D001
:101D10000868400556D4FFF769FD401B48454ED87A
:101D20002068014651F8142F5207F1D5B4F828C0A5
:101D300018E000BF0A68520544D40A68520711D45B
:101D40000A6852053ED40A6852070BD40A68520545
:101D500038D40A68520705D40A68520532D40A6892
:101D60005207E7D55FEA0C417FF46DAF016841F49B
:101D700000710160202084F83D0084F83E6084F802
:101D80003C60304601B0BDE8F08300BFFFF72EFD98
:101D9000202000212022216384F83D2084F83E1079
:101DA000226C01261043206484F83C10304601B0B8
:101DB000BDE8F0830868400504D4FFF717FD202034
:101DC00004E000BF6FF4806008600420002120223E
:101DD000216384F83D2084F83E10226C1043206477
:101DE00084F83C10206C04280AD120680126016880
:101DF00041F400710160304601B0BDE8F08300BFDE
:101E00000126304601B0BDE8F0830000016845F2CC
:101E10000040C4F20000814218BF7047B0B586B0E0
:101E2000002443F630050194C4F20205296800F548
:101E3000D83041F002012960296801F002010191C6
:101E40000199C02101911221CDE9021403210491CD
:101E50000421059101A9FFF7E5FB0094286940F4EE
:101E600000102861286900F400100090009806B066
:101E7000BDE8B0407047000040F2040040F2F83185
:101E8000C2F20000C2F2000100780A681044086043
:101E90007047000080B543F60040C4F202000168BC
:101EA00041F400710160016841F4806101600168E2
:101EB00041F480710160032000F086F8002000F0FA
:101EC00005F800F027F8002080BD000070B540F252
:101ED0000406C2F2000640F20C013278C2F20001A0
:101EE0004FF47A730968B3FBF2F20446B1FBF2F1E6
:101EF000084600F095FB0F2C4FF0010508D838B9C3
:101F00004FF0FF3021460022002500F031F87460C8
:101F1000284670BD82B0002043F640010190C4F213
:101F200002014A6842F480424A604A6802F48042F0
:101F30000192019A0090086840F08050086008689B
:101F400000F080500090009802B07047002848BF11
:101F5000704700F01F01012202FA01F11C2202EA7F
:101F6000D0004EF20012CEF2000281507047000005
:101F700010B54EF60C5CCEF2000CDCF80030C3F36A
:101F8000022E8EF00704042C28BF0424BEF10303A4
:101F90004FF0FF3E0EFA04F438BF0023A1439940EE
:101FA0000EFA03F39A43114300F00F0200F160436D
:101FB0000901043A03F564436244002848BF02F172
:101FC0000C03197010BD00004EF60C51CEF200014A
:101FD0000A684FF6FF031A4060F30A2242F080605D
:101FE00040F0FD700860704770B582B0002001902D
:101FF00043F64000C4F202000168402641F08051DF
:1020000001600068C4F20E2600F080500190019833
:1020100047F204050120C4F200053060FFF7E6FB3B
:10202000044600BF2868C00306D4FFF7DFFB001B8F
:10203000B0F57A7FF6D90EE001207060FFF7D6FB8D
:10204000044600BF2868800308D4FFF7CFFB001BBD
:10205000B0F57A7FF6D9032002B070BD002002B03F
:1020600070BD0000002804BF012070472DE9F04139
:1020700043F60808C4F202080446D8F8F8030D46EF
:1020800000F00F00884207D288F8F853D8F8F80318
:1020900000F00F00A84277D12068810717D54107CB
:1020A00005D5D8F8001041F4E051C8F80010010738
:1020B00005D5D8F8001041F46041C8F80010D8F8F0
:1020C0000010A26821F0F0011143C8F80010C00709
:1020D00040D1D8F8F80300F00F00A84207D988F8DB
:1020E000F853D8F8F80300F00F00A8424CD120684C
:1020F000410707D5D8F80010E26821F4E0511143F8
:10210000C8F80010000708D5D8F80000216920F4AD
:10211000604040EAC100C8F8000000F07DF8D8F83F
:10212000001044F6A822C1F30311C0F60002515C6E
:1021300040F20C0220FA01F140F20800C2F2000065
:102140000068C2F200021160FFF7C0FE0020BDE887
:10215000F08100BF6068811E022907D258F8081C70
:1021600089015CBF0120BDE8F08111E0012807D1A1
:1021700058F8081C89035CBF0120BDE8F08107E026
:1021800058F8081C890703D40120BDE8F08100BF7E
:10219000D8F8001021F003010843C8F80000FFF749
:1021A00025FB064641F28837D8F80000616800F048
:1021B0000C00B0EB810F8CD0FFF718FB801BB842EE
:1021C000F2D90320BDE8F08140F20C0043F608018B
:1021D000C2F20000C4F202010068096844F6B822A5
:1021E000C1F38221C0F60002515CC8407047000074
:1021F00040F20C0043F60801C2F20000C4F20201F2
:102200000068096844F6B822C1F34231C0F6000202
:10221000515CC8407047000010B543F60404C4F296
:102220000204606800F00C0008280BD0042819BFD5
:1022300042F20040C0F2F40047F64000C0F27D10C8
:1022400010BD00BF206821682368490247F640019D
:10225000C0F27D1100F03F02C3F388105CBF42F270
:102260000041C0F2F401A1FB00010023FDF7BAFF19
:1022700021680222C1F3014102EB4101B0FBF1F000
:1022800010BD0000002804BF012070472DE9F04177
:1022900082B00446007843F60006C007C4F2020686
:1022A0000CD0B06800F00C00042840F08180306849
:1022B000800303D56068002800F0608120788007E3
:1022C0001BD5B06810F00C0F09D0B06800F00C00FE
:1022D000082840F087807068400200F183803068F1
:1022E000800703D5E068012840F048813068216903
:1022F00020F0F80040EAC10030602078000713D4D5
:10230000207840072AD4A569002D00F03281B068FA
:1023100000F00C00082840F0A180012D40F00E8153
:10232000012002B0BDE8F0816069002840F20000A1
:10233000C4F2472000F07E800121C0F8801EFFF724
:1023400055FA0546706F8007DAD4FFF74FFA401B45
:102350000228F7D9032002B0BDE8F081306C5FEAB3
:10236000C0080AD400200190306C40F080503064E6
:10237000306C00F080500190019847F20007C4F2E1
:1023800000073868C00547D4386840F4807038606A
:10239000FFF72CFA054600BF3868C0053CD4FFF7AC
:1023A00025FA401B0228F7D9032002B0BDE8F081CE
:1023B000B06800F00C00082803D1706840023FF5B7
:1023C00076AF6068B0F5803F07D0B0F5A02F40F041
:1023D0009980306840F480203060306840F480306C
:1023E000306099E0E06800285CD00020C4F247200B
:1023F00001210160FFF7FAF9054600BF3068800748
:102400003FF574AFFFF7F2F9401B0228F6D903201D
:1024100002B0BDE8F08100BFA068012805D0052802
:1024200054D1306F40F004003067306F40F001004D
:10243000306755E00021C0F8801EFFF7D7F9054648
:10244000706F80077FF55CAFFFF7D0F9401B022863
:10245000F6D9032002B0BDE8F08100BF0027C4F226
:10246000472700203866FFF7C1F9022D05460DD138
:102470003068800140F18680FFF7B8F9401B0228E0
:102480004FF00300F4D902B0BDE8F081306880015C
:102490006FD5FFF7ABF9401B02284FF00300F5D9C9
:1024A000F1E700BF0020C4F2472000210160FFF7E0
:1024B0009DF90546306880077FF51FAFFFF796F955
:1024C000401B02284FF00300F4D9DCE7316F0028ED
:1024D00021F001013167316F21F00401316773D0C0
:1024E000FFF784F9054641F2883700BF306F800757
:1024F0007CD4FFF77BF9401BB842F7D9032002B028
:10250000BDE8F0813168002821F480313160316804
:1025100021F48021316073D0FFF768F9054600BFD0
:10252000306880033FF5CAAEFFF760F9401B6428AE
:10253000F6D9032002B0BDE8F08100BF7068E16900
:1025400000F480028A4219D1216A00F03F028A42D7
:1025500014D147F6C071626A014091420ED1A16A5E
:1025600000F440328A4209D1E16A00F0706088428A
:1025700004D1002002B0BDE8F08100BF012002B00C
:10258000BDE8F08104F11C052FCD084340EA82101C
:10259000D9034FF6FF729143A1F5803140EA0560FF
:1025A0000843706001203866FFF720F9044600BF39
:1025B00030688001DDD4FFF719F9001B02284FF0C5
:1025C0000300F5D95FE700BFFFF710F9054641F2B8
:1025D000883700BF306F800708D5FFF707F9401B29
:1025E000B8424FF00300F5D94DE700BFB8F1000F36
:1025F0003FF589AE306C20F08050306483E600BF38
:10260000FFF7F4F8054600BF306880037FF556AE4B
:10261000FFF7ECF8401B64284FF00300F4D932E7D1
:10262000411E0020B0EB116F1CBF012070474EF21D
:102630001002CEF2000251604EF62351CEF200019C
:10264000F0230B7007219060116070477047000005
:102650007047000090F83C20012A4FF0020254D04D
:1026600010B580F83D200268D2F804E0D2F808C026
:102670000C682EF07003234341F2FF74C4F200048F
:10268000A24253600EDC40F2FF73C4F200039A4290
:1026900016DCB2F1804F2BD040F20043C4F20003AD
:1026A00024E000BF40F2FF33C4F201039A4213DC7E
:1026B00041F60003C4F200039A4219D0002313E04C
:1026C00040F60003C4F200039A4211D040F60043E2
:1026D000C4F200030AE000BF44F20003C4F20103A5
:1026E0009A4205D040F20043C4F201039A4204D159
:1026F00049682CF08003194391600121002280F881
:102700003D1080F83C20BDE81040104670470000A6
:10271000002804BF0120704710B5044690F83D0022
:1027200028B9002084F83C00204600F00DF8022073
:1027300084F83D002068211D01F0CEF9012084F8C5
:102740003D00002010BD000010B582B0006841F2CD
:102750000041C4F20001884214D0B0F1804F2DD165
:102760000020019043F64000C4F2020001681C24DE
:1027700041F001010160006800F001000190019842
:1027800010E000BF0020009043F64000C4F20200B9
:102790000168372441F020010160006800F020004A
:1027A00000900098204600210022FFF7E1FB204620
:1027B00002B0BDE81040FFF7C9BB00BF02B010BDBA
:1027C0000146022081F83D000868826802F0070295
:1027D000062A03D0026842F00102026001220020B2
:1027E00081F83D20704700000068C16841F0010198
:1027F000C160816801F00701062903D0016841F03A
:10280000010101600020704790F83C20012A4FF040
:10281000020200F0C28080B580F83D20D0F800C0F0
:102820004FF67772DCF8083023EA0202CCF8082071
:102830000B683F2B1CDD5F2B20DD602B50D0B3F5E8
:10284000005F6DD0702B40F0A080D1E901E3C96832
:10285000DCF8082043EA0E0322F47F4243EA012118
:102860001143CCF80810DCF8081041F077018AE039
:102870001F2B29DC63B3102B2AD086E0402B63D0BA
:10288000502B40F08280D1F804E0C968DCF8203099
:10289000DCF8202022F00102CCF82020DCF81820FF
:1028A00022F0F00242EA011123F00A0242EA0E028B
:1028B000CCF81810CCF82020DCF8081041F05701B3
:1028C00021F020015FE000BF202B01D0302B5CD134
:1028D000DCF8081021F07001194341F0070152E0C3
:1028E000D1F804E0C968DCF8203023F01003CCF8FC
:1028F0002030DCF81830DCF8202023F4704322F07C
:10290000A00243EA013142EA0E12CCF81810CCF8CA
:102910002020DCF8081041F0670121F0100132E0BE
:10292000D1E901E3C968DCF8082043EA0E0322F488
:102930007F4243EA01211143CCF80810DCF808106B
:1029400041F480411FE000BFD1F804E0C968DCF821
:102950002030DCF8202022F00102CCF82020DCF826
:10296000182022F0F00242EA011123F00A0242EAA2
:102970000E02CCF81810CCF82020DCF8081041F03A
:10298000470121F03001CCF808100121002280F825
:102990003D1080F83C20BDE88040104670470000A4
:1029A0007047000010B5016804460869800744BFFD
:1029B000C8685FEA807039D40869400744BFC868B6
:1029C0005FEA40703ED40869000744BFC8685FEA08
:1029D000007045D40869C00644BFC8685FEAC0609B
:1029E0004AD40869C0071CBFC8685FEAC07051D1EB
:1029F0000869000644BFC8685FEA006052D40869ED
:102A0000400644BFC8685FEA406053D40869800646
:102A100046BFC8685FEA806010BD6FF020022046A4
:102A20000A61BDE81040FFF713BE00BF6FF002005F
:102A30000861012020778869800743D02046FFF78E
:102A4000AFFF45E06FF0040008610220207788693D
:102A500010F4407F40D02046FFF7A2FF42E000BFC5
:102A60006FF00800086104202077C86980073DD016
:102A70002046FFF795FF3FE06FF010000861082047
:102A80002077C86910F4407F3AD02046FFF788FFCE
:102A90003CE000BF6FF001000861204600F03EF806
:102AA0002168A5E76FF0800008612046FFF7CEFDA2
:102AB0002168A4E76FF040000861204600F064F848
:102AC0002168A3E7204600F025F8204600F024F80E
:102AD0002168002020776FE7204600F01BF8204691
:102AE00000F01AF82168002020776CE7204600F0FB
:102AF00011F8204600F010F821680020207769E7DF
:102B0000204600F007F8204600F006F82168002073
:102B1000207766E7704700007047000040F2F80138
:102B2000C2F20001884218BF704710B582B040F26F
:102B30001804C2F2000404F110020120012100F087
:102B400095FF04F121020220012100F08FFF3234B1
:102B500003200121224600F089FFFDF73DFF10EE22
:102B6000100AFDF749FD41EC100B04A2204611218B
:102B70008DED000B01F0A8FA02B010BD54656D7028
:102B80003A20252E32660000704700007047000092
:102B9000B0B5054600680168C368446901F02F02BA
:102BA000202A03F0200213D192B195F83A1022297D
:102BB00040F01881A968B1F5805F41D12A69A96AFE
:102BC0004068002A64D0C0B221F8010B64E000BF65
:102BD0005FEA017C1EBF04F0010E03F4907414EB55
:102BE0000E0439D10A0617D513F0800214D095F8D7
:102BF0003910212940F0F680AA68296AB2F5805F71
:102C000032D10A886FF35F2242602A69002A14BF1A
:102C10000131023129622BE0490640F1E38013F0D3
:102C2000400108BFB0BDC16821F04001C160202152
:102C3000284685F83910BDE8B04000F0CFBA00BF93
:102C4000296940680029A96A18BF00F07F004A1C62
:102C5000AA62087021E000BFCC0718BF13F480738C
:102C600036D14B073AD440E04A1C2A6209784160C9
:102C7000E98C01390A04E98440F0B480C16821F08C
:102C80008001C160C16841F04001C160B0BD00BFBA
:102C90006FF35F2021F8020BA962E88D013801046F
:102CA000E88540F09F802868C16821F02001C1605C
:102CB000C16821F48071C160416921F00101416165
:102CC0002021284685F83A10BDE8B04000F058B9F8
:102CD000EB6B43F00103EB634B0706D5BEF1000F2E
:102CE00003D0EB6B43F00203EB638B0706D5BEF119
:102CF000000F03D0EB6B43F00403EB63BCF1000F58
:102D000006D55EEA020303D0EB6B43F00803EB63E6
:102D1000EB6B002B66D089063AD5CAB395F83A100A
:102D2000222935D1A968B1F5805F07D12A69A96A3E
:102D300040687AB1C0B221F8010B0FE02969406800
:102D40000029A96A18BF00F07F004A1CAA62087017
:102D500005E000BF6FF35F2021F8020BA962E88D48
:102D6000411EE9852868090412D1C16821F02001BB
:102D7000C160C16821F48071C160416921F0010125
:102D80004161202085F83A00284600F0F9F82868CB
:102D90004169EA6B01F0400102F00802891823D072
:102DA000C16821F49071C160416921F00101416164
:102DB000202185F83A10416949061BD5416921F067
:102DC00040014161686BA8B143F61541C0F60001AE
:102DD0000165FEF701FC28B1686B016DBDE8B040EC
:102DE000084700BFB0BD00BF2846FFF7CFFE002058
:102DF000E863B0BD2846BDE8B040FFF7C7BE00009D
:102E0000002804BF0120704710B5044690F839002F
:102E100028B9002084F83800204600F021F824204A
:102E200084F839002068C16821F40051C16020464F
:102E300000F016FF2068016921F4904101614169A9
:102E400021F02A014161C16841F40051C1600020B4
:102E50002021E06384F8391084F83A1010BD000096
:102E600010B586B0006844F20042C4F200020021AE
:102E70009042CDE90411CDE90211019122D041F235
:102E80000001C4F2010188424DD1002043F6300117
:102E90000090C4F202014A69252442F010024A61FE
:102EA0004A6902F010020092009A0090086840F00F
:102EB00001000860086800F00100009000984FF4DD
:102EC000C06019E043F630000091C4F202000269CC
:102ED000262442F400320261026902F400320092B8
:102EE000009A0091016841F001010160006800F062
:102EF0000100009000980C20019002200290002018
:102F0000039003200490072005900020C4F20200E3
:102F100001A9FEF787FB204600210022FFF728F8D1
:102F20002046FFF713F806B010BD0000034690F8E6
:102F30003A0020280AD100294FF0010018BF002ACA
:102F400000D1704793F83800012801D10220704762
:102F50009962002022219A85DA85D86383F83A1095
:102F6000196883F83800CA6842F48072CA604A69F6
:102F700042F001024A61CA6842F02002CA6070470A
:102F800070B544F200460446C4F20006006806F537
:102F90004C41884227D140F21800C2F20000851D42
:102FA0002846FDF757F9C0F16400FDF7E8FA9FEDF8
:102FB000220B53EC102BFDF773FA9FED210B53EC12
:102FC000102BFDF7FBF9FDF72AFB40F21001C2F2CE
:102FD0000001086040F27810C2F200002946022287
:102FE000FFF7A4FF2068B04218BF70BD40F2180080
:102FF000C2F200008388B3F5FF7F11D88678591C90
:1030000040F2F81240F2FF15C2F20002A94281809C
:10301000D65418BF0A2E05D1002353540121017044
:1030200000218180811C40F2B810C2F20000012210
:10303000BDE87040FFF77ABF000000000000594073
:103040006666666666660A402DE9F041044690F8B9
:10305000390020280ED10E4600294FF0010000F063
:10306000A6801746002A08BFBDE8F08194F8380012
:10307000012803D10220BDE8F08100BF012084F8BF
:1030800038004FF0000821201D46C4F83C8084F829
:103090003900FEF7ABFBA784E78484F83880E18C25
:1030A0000746002960D005F1010805E016F8011B6C
:1030B0004160E18C002958D0E08C0138E084206820
:1030C000A1680268B1F5805F4FEA02611ED1002954
:1030D0000ED4B8F1000F2BD0002D6BD0FEF786FB7D
:1030E000C11B2068A94265D801680906F6D500BF52
:1030F00031886FF35F2141602169002914BF0136D7
:103100000236E18C0029D7D12FE000BF0029CDD4B1
:10311000B8F1000F1AD0002D4CD000BFFEF766FBAF
:10312000C11B2068A94245D801680906F6D5BDE74C
:1031300001680906DCD4016809065CBF01685FEA22
:103140000161D5D401680906F2D5D1E70168090605
:10315000ACD4016809065CBF01685FEA0161A5D4CF
:1031600001680906F2D5A1E72068016849061AD46A
:1031700005B3691C0ED10168490614D401684906DB
:103180005CBF01685FEA41610DD401684906F2D570
:1031900009E000BFFEF72AFBC11B2068A94209D83D
:1031A00000684006F6D5202084F839000020BDE8EC
:1031B000F08100BFC16821F4D071C160416921F084
:1031C00001014161202084F8390084F83A00002090
:1031D00084F838000320BDE8F0810000704700004B
:1031E000FEE70000B0B584B040F25C0042F200217E
:1031F00001230024C2F20000C4F20101C0F60073F2
:10320000012503944FF48032047680F82040C0E911
:103210000A34C56180F8304080E81600C0E90344F4
:103220004561FDF7EFFF002818BFFDF72DFF0820CF
:10323000CDE9000540F25C00C2F20000694602944C
:10324000FDF724FF002818BFFDF71EFF04B0B0BD36
:103250002DE9F04387B0002743F630000697019729
:10326000C4F20200016841F2000441F01001016063
:103270000168C4F2020401F0100101910199019763
:103280000168002241F0200101600168042601F07C
:103290002001019101990197016841F080010160CD
:1032A000016801F08001019101990197016841F0E5
:1032B00001010160016801F001010191019901978B
:1032C000016841F004010160016801F0040101910D
:1032D00001990197016841F0020101600068042131
:1032E00000F00200019001982046FEF779FA20468E
:1032F000102101224FF010084FF00109FEF770FA7B
:10330000A4F50065284610210022FEF769FA02960E
:10331000112002AECDE90309204631460597FEF79C
:1033200081F920463146CDE90289CDE90477FEF7DF
:1033300079F928463146CDE90289CDE90477FEF7CF
:1033400071F907B0BDE8F08380B540F2A40045F202
:103350000041C2F20000C4F2000148F2A062002362
:103360004FF4804CC0F2010280E80E00C0E9033C3B
:10337000C0E90533C0E90733FEF77CFA002818BF1F
:10338000FDF782FE40F2A400C2F200000021FEF729
:1033900033FA002818BFFDF777FE40F2A400C2F20E
:1033A00000000021FEF746FA002808BF80BDBDE8F6
:1033B0008040FDF769BE000080B586B040F2F8009D
:1033C00044F23F2C0021C2F20000C0F20F0C059124
:1033D000CDE90311CDE900114FF08042B323C0E9DC
:1033E000021C01618021C0E900238161FFF790F98F
:1033F000002818BFFDF748FE4FF48050029040F2BD
:10340000F800C2F2000002A9FFF7FEF9002818BF79
:10341000FDF73AFE40F2F800C2F200006946FFF7FD
:1034200019F9002818BFFDF72FFE06B080BD000077
:1034300080B582B040F238100021C2F2000041F2A3
:1034400000424FF6FF7CCDE90011C4F20002B32325
:10345000C0E9021C8021C0E900238161FFF758F90F
:10346000002818BFFDF710FE40F23810C2F200002D
:103470006946FFF7EFF8002818BFFDF705FE02B018
:1034800080BD000080B540F2781041F20001C2F228
:103490000000C4F2010100234FF00C0C4FF4E132A4
:1034A00080E80E00C0E90333C0E905C3C361FFF73C
:1034B000A7FC002808BF80BDBDE88040FDF7E4BD43
:1034C00080B540F2B81044F20041C2F20000C4F2EC
:1034D000000100234FF00C0C4FF4E13280E80E00A5
:1034E000C0E90333C0E905C3C361FFF789FC0028C5
:1034F00008BF80BDBDE88040FDF7C6BDFEE7000007
:10350000704700002DE9F04F83B040F2A40400267C
:103510004FF0FF37C2F200040DF1080A4FF04008E7
:103520000DF10A054FF0000B4BF0B0008DF80500CF
:103530002046782101AA02238DF804600097FEF747
:103540004BFA4FF48050ADF80600204678210DF17B
:10355000060202230097FEF73FFA204678215246E2
:103560000223ADF808600097FEF736FA4FF0000925
:10357000204678212A460223ADF80A800097FEF7FC
:103580002BFA09F101004FFA80F9B9F1FF3FEFDCA6
:10359000BBF1070F0BF1010BC6D303B0BDE8F08FF1
:1035A000B0B582B040F2A4044FF42E40C2F2000441
:1035B000ADF806004FF0FF350DF1060220467821E8
:1035C00002230095FEF708FA4FF45540ADF80600C7
:1035D0000DF106022046782102230095FEF7FCF942
:1035E0004FF40040ADF806000DF1060220467821A8
:1035F00002230095FEF7F0F94FF42840ADF80600DD
:103600000DF106022046782102230095FEF7E4F929
:103610004FF47C50ADF806000DF1060220467821EB
:1036200002230095FEF7D8F94FF45340ADF8060099
:103630000DF106022046782102230095FEF7CCF911
:103640000020ADF806000DF1060220467821022385
:103650000095FEF7C1F94FF48040ADF806000DF17A
:1036600006022046782102230095FEF7B5F94FF4B3
:103670002140ADF806000DF1060220467821022314
:103680000095FEF7A9F94FF44840ADF806000DF19A
:1036900006022046782102230095FEF79DF94FF49B
:1036A0005A40ADF806000DF10602204678210223AB
:1036B0000095FEF791F94FF49050ADF806000DF12A
:1036C00006022046782102230095FEF785F94FF483
:1036D0000140ADF806000DF10602204678210223D4
:1036E0000095FEF779F94FF44F40ADF806000DF163
:1036F00006022046782102230095FEF76DF94FF46B
:103700005940ADF806000DF106022046782102234B
:103710000095FEF761F94FF47140ADF806000DF128
:1037200006022046782102230095FEF755F94FF452
:103730005B40ADF806000DF1060220467821022319
:103740000095FEF749F94FF44050ADF806000DF131
:1037500006022046782102230095FEF73DF94FF43A
:103760002440ADF806000DF1060220467821022320
:103770000095FEF731F94FF42640ADF806000DF143
:1037800006022046782102230095FEF725F94FF422
:103790000D40ADF806000DF1060220467821022307
:1037A0000095FEF719F94FF4A050ADF806000DF1A1
:1037B00006022046782102230095FEF70DF94FF40A
:1037C0002F40ADF806000DF10602204678210223B5
:1037D0000095FEF701F9FFF795FE02B0B0BD0000BD
:1037E0002DE9F04F85B091467E2202EB40036FF049
:1037F000070240F2A408039002EBC10443F0B000BA
:103800000021C2F200088DF812108DF813004FF05D
:10381000FF370DF11202404678210223E5B200265F
:103820000097FEF7D9F82809103002908DF81300A0
:103830000DF112024046782102238DF812600097A4
:10384000FEF7CAF804F0080001908DF813000DF19E
:1038500012024046782102238DF812600097FEF78D
:10386000BBF844F6C020C0F600004FF6006100EB44
:103870000910CFF6FF71A0F50074405C0DF112063F
:103880004FF040098DF8130040467821324602235C
:103890008DF812900097FEF79FF86078A57894F85D
:1038A00003A094F804B08DF8130040467821324606
:1038B00002238DF812900097FEF78EF8404678218B
:1038C000324602238DF812908DF813500097FEF7C0
:1038D00083F840467821324602238DF812908DF805
:1038E00013A00097FEF778F840467821324602236D
:1038F0008DF812908DF813B00097FEF76DF860798F
:1039000078218DF813004046324602238DF812903C
:103910000097FEF761F8A07978218DF813004046F2
:10392000324602238DF812900097FEF755F8E079A1
:1039300078218DF813004046324602238DF812900C
:103940000097FEF749F80398002507EB400040F088
:10395000B0008DF813000DF11202404678210223C9
:103960008DF812500097FEF737F802980DF1120209
:103970008DF813004046782102238DF8125000255F
:103980000097FEF729F801980DF112028DF8130047
:103990004046782102238DF812500097FEF71CF85C
:1039A000207A0DF112058DF81300404678212A4641
:1039B00002238DF812900097FEF70EF8607A7821B6
:1039C0008DF8130040462A4602238DF81290009786
:1039D000FEF702F8A07A78218DF8130040462A46B7
:1039E00002238DF812900097FDF7F6FFE07A782118
:1039F0008DF8130040462A4602238DF81290009756
:103A0000FDF7EAFF207B78218DF8130040462A4617
:103A100002238DF812900097FDF7DEFF607B78217E
:103A20008DF8130040462A4602238DF81290009725
:103A3000FDF7D2FFA07B78218DF8130040462A467F
:103A400002238DF812900097FDF7C6FFE07B7821E6
:103A50008DF8130040462A4602238DF812900097F5
:103A6000FDF7BAFF05B0BDE8F08F0000F0B581B0FA
:103A7000144612786AB10D46064600277819C1B27D
:103A8000D2B23046FFF7ACFE0137F8B2225C002A12
:103A9000F4D101B0F0BD0000704700007047000095
:103AA000FEF7EAB94EF68850CEF20000016841F404
:103AB000700101604FF0006140F8801C7047000009
:103AC00040F2F800C2F20000FEF76CBF40F238107E
:103AD000C2F20000FEF766BF10B540F6FF3E036875
:103AE000C4F2000E40F2004C7045C4F2010C27DC19
:103AF000B0F1804F31D040F20042C4F20002904257
:103B00002BD040F60002C4F20002904225D041F6CC
:103B1000FF72C4F20002904229DC70453CDCB0F137
:103B2000804F5FD040F20042C4F20002904259D070
:103B300040F60002C4F20002904253D056E000BFAB
:103B400040F60042C4F20002904206D0604504D024
:103B50000022C4F201029042D9D14A6823F07003D6
:103B6000134341F6FF72C4F200029042D5DD43F6E2
:103B7000FF72C4F20102904222DC42F20002C4F25F
:103B8000000290422ED00022C4F20102904229D0BD
:103B9000604527D02AE000BF40F60042C4F2000290
:103BA00090421FD041F60002C4F20002904219D0A8
:103BB00041F60042C4F20002904213D016E000BF6A
:103BC00044F20002C4F2010290420BD044F600021B
:103BD000C4F20102904205D044F20042C4F2010254
:103BE000904203D1CA6823F44073134323F0800248
:103BF0004B69D1F800E08C681A430260C46240F45B
:103C00008062C0F828E0624504BF096901630121B0
:103C1000416110BD806B0021C185C184FEF7B6BF34
:103C200083B010B5A1B0844623A801AC0EC023AB6D
:103C3000204680216246009300F060FA2046FCF79F
:103C400002FB82B240F27810C2F2000021464FF02F
:103C5000FF33FFF7F9F921B0BDE8104003B070471A
:103C6000B0B50446006804F108030ECB056919439A
:103C700025F440552A430261626949F20C651143FB
:103C8000E269C368B2F5004F23EA050341EA030184
:103C900041EA0201C1604169A36921F4407141EA2E
:103CA0000301416141F2004140F48060C4F201012E
:103CB00008D14FF69C758842C0F6FF750CD1FEF70F
:103CC00097FA0BE04FF69C758842C0F6FF7529D134
:103CD000FEF78EFA28E000BFFEF776FA6368192136
:103CE000A0FB01015A00DB0FFCF77CFA48F21F51E0
:103CF000C5F2EB11A0FB01235A0905F1805302FB29
:103D00000300322303EBC000A0FB01014FF4F87065
:103D100000EA111000EB0210C1F3421108442168BF
:103D20008860B0BDFEF750FA63681921A0FB01015D
:103D30009A009B0FFCF756FA48F21F51C5F2EB119F
:103D4000A0FB01235A0902FB0500322303EB0010FC
:103D5000A0FB0101F02000EA511000EB0210C1F3BA
:103D60004311084421688860B0BD000040F278101B
:103D7000C2F20000FEF70CBF40F2B810C2F2000021
:103D8000FEF706BFFEE7000040F23811C2F2000164
:103D900009684A6A10440022B2EB104F18BFA0F520
:103DA000803006E04A6A824208BF70474A6A82420F
:103DB00005D04A6A824202D04A6A8242F2D17047F2
:103DC0009AB047F20004C4F20004FEF763F84FF023
:103DD000000843F64000CDE91288CDE91088CDF8FF
:103DE0002480C4F2020001680F2541F08051016077
:103DF000006800F0805009900998CDF82480206870
:103E000040F4404020602068022400F440400990C3
:103E1000099801200E904FF480300F904FF48000ED
:103E20001590D820CDE91704042019900EA81494F9
:103E30001695FEF727FAFEF7D7F84FF4A0500C902E
:103E40004FF480500D9009A80521CDE90954CDF813
:103E50002C80FEF707F9FFF7FBF9FFF713FBFFF7DD
:103E6000C1F9FFF72DFBFFF7A7FAFFF76DFAFFF790
:103E7000DFFA40F2180B40F27815C2F2000BC2F2E2
:103E800000050BF1060128460222FFF74FF840F229
:103E90003810C2F20000FEF793FCFCF715FEFFF7A6
:103EA0007FFB40F2F800C2F20000FEF79DFC9FEDA0
:103EB000700B9FED711B51EC100B9FED710BCDE959
:103EC000071051EC110B40F25C079FED6F8BCDE9B1
:103ED0000510C2F2000751EC100BCDE9031000BF32
:103EE0003846FDF7D9FA38464FF0FF31FDF76EFA44
:103EF0003846FDF783F9FCF753FBDDE90732FCF7A1
:103F00005DFADDE90532FCF759FAFCF788FB8146DA
:103F1000FCF772FBDDE9033241EC190BFCF7C0FA48
:103F200054EC186B32462346FCF748FA32462346D7
:103F3000FCF79DF9FCF741FB0BF1100604463046F7
:103F4000112153A28DED009B00F0BEF80BF1210A68
:103F50005046112152A2234600F0B6F828463146B9
:103F600011224FF47A73FFF76FF840F21000C2F29B
:103F7000000000688DF84880CDE91088CDE90E88F2
:103F8000FCF73AFB41EC100B0EAC2046112149A284
:103F90008DED000B00F098F82846214611224FF4D1
:103FA0007A73FFF751F82846514611224FF47A737D
:103FB000FFF74AF80BF13201284611224FF47A73C9
:103FC000FFF742F8FDF712FC9BF8011006460129A5
:103FD00028D0D1BBDBF80C0000F6B8318E4242F29B
:103FE0001071084401D986422FD386422DD940F260
:103FF0001000C2F2000090ED000A01EE109AB4EE3B
:10400000410AF1EE10FA20DD47F20000C4F2000090
:1040100000F5D03010210022FDF7E2FBCBF80C6058
:10402000012010E0DBF80C0000F6B83086420CD915
:1040300047F20000C4F2000000F5D0301021012248
:10404000FDF7CEFB00208BF801004FF47A70FDF7EE
:10405000D5FA9BF8000000283FF442AF40F2F81078
:10406000C2F200008BF80080FFF7DAFD38E700BFEE
:10407000000000000000303F6666666666660A4023
:104080006666666666660AC0000000000000594069
:10409000726573756C743A252E32665620000000E6
:1040A00020202020202020256425252020202020BD
:1040B0000A0000007468726573686F6C643A252E9C
:1040C00032665620000000000FB47CB50C0009AD2C
:1040D00001D0611E00E00021CDE90001064B6A46D7
:1040E0002946089800F0FAF8002C02D0009A002126
:1040F00011707CBC5DF814FB0B4A00087CB50C0009
:104100001D461646014601D0601E00E00020CDE9A4
:104110000010064B6A462946304600F0DFF8002CB6
:1041200002D0009A002111707CBD00000B4A0008EB
:10413000004870470000002002E008C8121F08C1B4
:10414000002AFAD170477047002001E001C1121F18
:10415000002AFBD1704700002DE9FF5F82B00021EB
:10416000DDE90430020DDDF840B0034318D044F619
:104170001050A2F2FF3242431514119801281FD0AB
:10418000A5EB0B00401C5FEA000A4FF000064E4F03
:10419000DFF83891B046504615D5CAF1000413E057
:1041A000119801244AA3012801D16FEA0B0102985A
:1041B000119AC0E90031C0E9024206B0BDE8F09FA3
:1041C000CBF10000DFE704460021404A491842EBEA
:1041D0000450CDE9001012E0E00707D032463B461C
:1041E00040464946FCF7EAF88046894632463B4657
:1041F00010461946FCF7E2F806460F466410002CFC
:10420000EAD1DDE90401DDE90023BAF1000F06DAA5
:10421000FCF7D4F842464B46FCF7D0F805E0FCF733
:104220003FF942464B46FCF73BF904460E46002256
:10423000284BFCF73BFB03D84FF0FF30014607E06B
:104240000022254B20463146FCF711F8FCF716FBFF
:10425000102409E0002C0ADB0A220023FBF7C2FF2E
:10426000039B30321A55641E50EA0102F2D1641CDD
:10427000039AC4F111031444119A012A03D00122B4
:1042800008430DD10AE0084304D000204FF0110B81
:10429000119072E7A3EB0B056D1E0DE05B4504DD8D
:1042A0004FF0000205F1010504E003DA4FF00002CF
:1042B000A5F10105002AECD002981199C0E902315C
:1042C000C0E9004579E70000000014400000F03F1D
:1042D000300000000000F0430000E03F2DE9FF4FF8
:1042E00095B09B468946064600250FE2252877D1E2
:1042F00000242746F84A0121059400E0044316F8FB
:10430000013F203B01FA03F01042F7D130782A2810
:1043100011D06FF02F033078A0F13002092A16D89F
:10432000059A44F0020402EB820203EB42021044BD
:10433000761C0590EFE759F8042B0592002A03DA62
:10434000504244F40054059044F00204761C307846
:104350002E2816D116F8010F44F004042A280DD097
:104360006FF02F023078A0F13003092B09D807EB4A
:10437000870302EB4303C718761CF3E759F8047B65
:10438000761C30786C280FD006DC4C2817D06828B3
:104390000DD06A2814D104E0742810D07A280FD1E7
:1043A0000DE044F400140AE044F4801401E044F405
:1043B00040147278824202D104F58014761C761C77
:1043C000307866280BD013DC582877D009DC002819
:1043D00075D04528F6D04628F4D047281AD19DE15B
:1043E00018E0632835D0642879D0652812D195E18A
:1043F000702873D008DC6728F1D069286FD06E2848
:104400000DD06F2806D1B5E073282CD0752875D053
:10441000782874D05A46179990476D1C75E1C4F3FB
:104420000250022809D003280DD0D9F80010042822
:104430000DD00D6009F1040967E1D9F80010EA1701
:10444000C1E90052F6E7D9F800100D80F2E70D70CF
:10445000F0E719F8041B8DF8001000208DF801001A
:10446000EA46012003E059F804AB4FF0FF30610742
:104470004FF0000102D40DE008F101018846B94275
:104480000FDA8045F8DB1AF808100029F4D108E0AB
:1044900008F1010188468142FADB1AF80810002968
:1044A000F6D105985B46A0EB080721463846179AD7
:1044B00000F094FA284400EB080507E04DE029E1FC
:1044C0000DE01AF8010B5A4617999047B8F1010808
:1044D000F7D25B4621463846179A13E142E00A229A
:1044E0000092C4F302524FF0000A022A08D059F891
:1044F00004CB032A4FEAEC710AD00DE029E02AE050
:1045000009F1070121F00702F2E802C1914609E032
:104510000FFA8CFC4FEAEC71042A03D14FFA8CFCA1
:104520004FEAEC71002907DA0A460021DCF1000CA1
:1045300061EB02012D2202E0220504D52B228DF829
:104540000420012203E0E20701D02022F7E7904691
:1045500059E00A2102E010220DE010214FF0000A7C
:1045600000910BE010224FF0000A44F004040827E9
:10457000009203E008224FF0000A0092C4F30252B6
:10458000022A05D059F804CB0021032A08D009E0FB
:1045900009F1070121F00702F2E802C1914605E0A6
:1045A0001FFA8CFC042A01D10CF0FF0C4FF000081C
:1045B000220728D5702806D0009B83F0100353EA09
:1045C0000A0305D00EE040228DF80420012208E005
:1045D0005CEA010206D030228DF804208DF8050037
:1045E00002229046009B83F0080353EA0A030AD193
:1045F0005CEA010201D1620705D530228DF8042062
:104600004FF001087F1E582804D034A003900EA854
:1046100002900DE036A0F9E753466046009AFBF79A
:10462000E1FD84460398825C0298401E029002706D
:104630005CEA0100F0D1029806A9081A00F1200AEC
:10464000600702D524F4803400E00127574502DDDD
:10465000A7EB0A0000E0002000EB0A01009005989B
:104660004144401A0590E00306D45B462146179A60
:10467000059800F0B3F90544002706E001A85A4662
:10468000C05D179990476D1C7F1C4745F6DBE00322
:104690000CD55B462146179A059800F09FF9054412
:1046A00004E030205A46179990476D1C0099481E27
:1046B00000900029F5DC08E0029802995A4600783B
:1046C000491C0291179990476D1CBAF10001AAF19B
:1046D000010AF1DC65E100000928010030313233C4
:1046E000343536373839616263646566000000002E
:1046F0003031323334353637383941424344454618
:104700000000000000F058F90544761C30780028BD
:104710007FF4ECAD19B02846BDE8F08F620700D4F5
:10472000062709F1070222F0070CFCE80223E14604
:1047300003F000485FEA080C02D00FF2702C0DE085
:104740005FEA045C02D50FF2682C07E05FEAC47CE4
:1047500002D00FF2602C01E0AFF2700C4FF0FF3886
:1047600023F00043CDF850C065280CD006DC452866
:1047700009D046281DD047283DD13DE0662818D0F5
:1047800067287ED138E00021112F01DB112000E0E5
:10479000781CCDE9000106A90EA8FFF7DDFCDDE9D4
:1047A0000F010E9A03910021009207F1010A049172
:1047B0004DE04FF000400097CDE9011006A90EA88A
:1047C000FFF7CAFCDDE90F0203920E9B119900224C
:1047D000DDF80CA00093049211B9791C00EB010ADA
:1047E000B7EB0A0004D4C0F1FF3007F1010A0490CE
:1047F000AAEB0700019044E0012F00DA0127002115
:10480000112F01DD112000E03846CDE9000106A995
:104810000EA8FFF7A1FCDDE90F010E9A039100211C
:1048200004910092BA4621070CD40399514500DA4D
:104830008A46BAF1010F05DD009AAAF10101515C27
:10484000302908D0B84202DA10F1040F06DA01214B
:10485000CDE9011015E0AAF10101E9E7002805DC26
:10486000049901440491AAEB000102E0411C514566
:1048700000DD8A460499401A401C01904FF0004028
:104880000290200704D40198504501DBCDF8048044
:1048900000208DF84F0002980DF14F07B0F1004F46
:1048A00025D02B200E9002984FF0020800280CDA39
:1048B000404202902D200E9007E00A210298FBF75B
:1048C000CAFE3031029007F8011DB8F10001A8F1CD
:1048D0000108F2DC02980028EFD1791E0E980870CA
:1048E000307800F0200040F0450007F8020D12A8D3
:1048F000C01B00F107081498007800B1012000EBFC
:104900000A01019801EBE07105984144401A401EEC
:104910000590E00306D45B462146179A059800F0FF
:104920005DF805441498007818B15A4617999047D5
:104930006D1CE00324D55B462146179A059800F0CC
:104940004DF805441CE00498002807DBDDE903016D
:10495000884203DD0098405C179901E017993020E8
:104960005A469047049805F10105401C04900198AF
:10497000401E019004D12E205A46179990476D1C75
:10498000BAF10001AAF1010ADDDC05E017F8010B1C
:104990005A46179990476D1CB8F10001A8F101081B
:1049A000F4DC5B462146179A0598ABE62D00000023
:1049B0002B000000200000002DE9F04104460025F6
:1049C0001E461746880404D405E039462020B04727
:1049D0006D1C641EF9D52846BDE8F0812DE9F04133
:1049E000044600251E469046C80301D5302700E046
:1049F0002027880404D505E041463846B0476D1CA1
:104A0000641EF9D52846BDE8F0814A68002A06D020
:104A10000A68531C0B6010704868401E486070475D
:104A200000404040404040404040414141414140C1
:104A30004040404040404040404040404040404076
:104A40004005020202020202020202020202020205
:104A5000022020202020202020202002020202020A
:104A60000202909090909090101010101010101062
:104A7000101010101010101010101010020202026E
:104A800002028888888888880808080808080808B2
:104A900008080808080808080808080802020202AE
:104AA00040000000214A0008000000000000000053
:104AB00001020304060708090000000001020304C4
:104AC00000000000000000000000000000000000E6
:104AD000000000F80000000000000033300000007B
:104AE00000100C06100C0600000000000000000082
:104AF00040C07840C0784000043F04043F040400F4
:104B0000007088FC08300000001820FF211E000003
:104B1000F008F000E018000000211C031E211E0018
:104B200000F00888700000001E212324192721109E
:104B300010160E0000000000000000000000000041
:104B4000000000E0180402000000000718204000E8
:104B500000020418E00000000040201807000000D8
:104B6000404080F0804040000202010F010202003C
:104B7000000000F0000000000101011F0101010020
:104B8000000000000000000080B070000000000085
:104B9000000000000000000000010101010101010E
:104BA00000000000000000000030300000000000A5
:104BB000000000008060180400601806010000007A
:104BC00000E010080810E000000F102020100F0077
:104BD000001010F8000000000020203F20200000FE
:104BE0000070080808887000003028242221300056
:104BF00000300888884830000018202020110E005E
:104C00000000C02010F8000000070424243F240006
:104C100000F80888880808000019212020110E00DB
:104C200000E0108888180000000F112020110E00ED
:104C300000380808C83808000000003F00000000E5
:104C40000070880808887000001C222121221C00A6
:104C500000E010080810E0000000312222110F00CF
:104C6000000000C0C0000000000000303000000064
:104C700000000080000000000000806000000000D4
:104C800000008040201008000001020408102000ED
:104C90004040404040404000040404040404040038
:104CA00000081020408000000020100804020100CD
:104CB000007048080808F0000000003036010000CD
:104CC000C030C828E810E0000718272423140B0080
:104CD0000000C038E0000000203C230202273820FA
:104CE00008F8888888700000203F202020110E00DE
:104CF000C0300808080838000718202020100800D5
:104D000008F808080810E000203F202020100F00BD
:104D100008F88888E8081000203F20202320180089
:104D200008F88888E8081000203F200003000000F1
:104D3000C03008080838000007182020221E020092
:104D400008F808000008F808203F210101213F2051
:104D5000000808F8080800000020203F202000007C
:104D600000000808F8080800C08080807F0000006C
:104D700008F888C028180800203F200126382000A5
:104D800008F8080000000000203F2020202030000C
:104D900008F8F800F8F80800203F003F003F200026
:104DA00008F830C00008F808203F200007183F002E
:104DB000E01008080810E0000F10202020100F005D
:104DC00008F808080808F000203F21010101000050
:104DD000E01008080810E0000F18242438504F0095
:104DE00008F8888888887000203F2000030C302055
:104DF00000708808080838000038202121221C0093
:104E0000180808F8080818000000203F20000000DB
:104E100008F808000008F808001F202020201F00C4
:104E20000878880000C83808000007380E01000024
:104E3000F80800F80008F800033C0700073C0300EE
:104E4000081868808068180820302C03032C302054
:104E50000838C800C83808000000203F20000000C3
:104E600010080808C838080020382621202018001B
:104E7000000000FE020202000000007F40404000EF
:104E8000000C30C000000000000000010638C00027
:104E900000020202FE000000004040407F000000CF
:104EA00000000402020204000000000000000000F4
:104EB00000000000000000008080808080808080F2
:104EC00000020204000000000000000000000000DA
:104ED00000008080808000000019242222223F20D0
:104EE00008F8008080000000003F112020110E0013
:104EF0000000008080800000000E112020201100A2
:104F0000000000808088F800000E112020103F2053
:104F10000000808080800000001F222222221300D7
:104F2000008080F0888888180020203F2020000022
:104F30000000808080808000006B949494936000D7
:104F400008F8008080800000203F210000203F20E2
:104F500000809898000000000020203F20200000E2
:104F6000000000809898000000C08080807F0000D2
:104F700008F8000080808000203F24022D302000AF
:104F8000000808F8000000000020203F202000005A
:104F90008080808080808000203F20003F20003F74
:104FA0008080008080800000203F210000203F2082
:104FB0000000808080800000001F202020201F0033
:104FC000808000808000000080FFA12020110E0062
:104FD0000000008080808000000E112020A0FF8053
:104FE000808080008080800020203F212000010000
:104FF0000000808080808000003324242424190055
:10500000008080E0808000000000001F2020000061
:105010008080000000808000001F202020103F20A2
:10502000808080000080808000010E300806010032
:1050300080800080008080800F300C030C300F00D7
:1050400000808000808080000020312E0E31200002
:10505000808080000080808080818E701806010032
:1050600000808080808080000021302C2221300050
:1050700000000000807C020200000000003F404071
:1050800000000000FF00000000000000FF00000022
:105090000002027C800000000040403F0000000051
:1050A00000060101020204040000000000000000EC
:1050B000D05000080000002018000000384100080F
:1050C000E850000818000020E807000048410008E8
:1050D0000000000001000000100000000024F400A7
:0850E000000000400000000088
:04000005080001AD41
:00000001FF
